:020000040800F2
:10000000B0050020050100089B2D0008AB2A000860
:10001000992D0008CD0A0008853300080000000073
:10002000000000000000000000000000C52D0008D6
:10003000150B0008000000009D2D0008C72D0008CA
:100040001F0100081F0100081F0100081F01000810
:100050001F0100081F0100081F0100081F01000800
:100060001F0100081F0100081F010008D10A000835
:100070001F0100081F0100081F0100081F010008E0
:100080001F0100081F0100081F0100081F010008D0
:100090001F0100081F0100081F0100081F010008C0
:1000A0001F0100082D2E00081F0100081F01000875
:1000B000392E00081F010008000000001F01000881
:1000C0001F01000800000000000000001F010008E0
:1000D00000000000793300081F0100080000000044
:1000E000170B00081F0100081F010008DFF810D0DF
:1000F00000F02CFC00480047C13C0008AFF3008032
:10010000B00500200648804706480047FEE7FEE7A6
:10011000FEE7FEE7FEE7FEE7FEE7FEE7FEE7FEE7B7
:100120002B2E0008ED0000082DE9F05F05460020A9
:1001300092469B4688460646814640241BE0284658
:1001400041464746224600F020F853465A46C01A18
:10015000914110D311461846224600F030FA2D1A6C
:1001600067EB01084F4622460120002100F027FAE4
:1001700017EB00094E41201EA4F10104DFDC4846C4
:1001800031462A464346BDE8F09F202A04DB203A48
:1001900021FA02F00021704721FA02F3D040C2F1A7
:1001A00020029140084319467047D2B201E000F89E
:1001B000012B491EFBD270470022F6E710B513460B
:1001C0000A4604461946FFF7F0FF204610BD30B539
:1001D00005460020034600E05B1C934205D2EC5C20
:1001E000C85C201A01D1002CF6D130BDF0B480EAF1
:1001F0000102D40F4200B2EB410F02D20246084680
:1002000011464A0042D0C30DDDB2C1F3C752AD1A48
:10021000202D35DAC1F3160141F4000204B1524237
:10022000C5F1200602FA06F12A411044B3EBD05F73
:1002300023D0C4B1012DA0EBC35009DCF0BC4FF0BA
:10024000004202EAC352DBB200F5000000F0E1B95F
:10025000400000F1807000EBC350A0F1807040EAD4
:10026000D170490009E0490841EAC071A0EBC350D0
:1002700000F50000400800EBC350F0BC00F0C0B92E
:100280006142012202EB4101001BF6E7F0BC70471E
:1002900081F00041AAE780F00040A7E780EA010270
:1002A00010B502F00043400022D04A001FD0010EDA
:1002B00001EB1261C0F35600C2F3560240F4000095
:1002C00042F40002A0FB022000047F39140400D095
:1002D000401C50EA124001D44000491EC2B20C0634
:1002E00004EBD010401C4008802A02D003E000201C
:1002F00010BD20F00100002900DA0020184310BDD5
:1003000030B480EA010202F0004530F0004221F0F2
:10031000004013D090B1C30DD40DC2F31601C0F349
:100320001600E41A41F4000140F400027D349142C9
:1003300001D3641C00E04900002C02DA30BC00202C
:1003400070474FF400000023914201D3891A034300
:1003500040084FEA4101F7D151B1914202D14FF02B
:10036000004105E002D24FF0010101E06FF0010110
:1003700003EBC450284430BC00F042B9420005D021
:10038000C0F3C7525242914201DC0020704700EB9B
:10039000C15070472DE9FE4F804681EA0300C00F2F
:1003A0000C46009021F0004123F00045B8EB02001C
:1003B000A94105D24046214690461C460B460246BE
:1003C00023F00040104347D0270DC7F30A00C3F3C2
:1003D0000A510290401A019040286BDAC3F31300CF
:1003E00040F4801B0098924620B10023D2EB030A10
:1003F00063EB0B0B01985946C0F14002504600F0E8
:10040000DEF806460D4650465946019A00F0E6F8D9
:1004100010EB08006141002487EA115284EAE77377
:100420001A4340D0009A62B3019A012A4FEA075258
:1004300015DC001B61EB02014FF0004202EA07529B
:10044000CDE90042001C41F5801132462B4600F0F8
:100450001DF903B0BDE8F08F40462146F9E7001BC7
:1004600061EB0201001C41F5801300185B4120186C
:10047000A2F5001747EB030140EAD570B6196D41AC
:1004800011E06D084FEA360645EAC0754FEA07529B
:10049000001B61EB0201001C41F5801149084FEA85
:1004A00030000019514132462B4603B0BDE8F04FF1
:1004B00000F0DDB80098012240000023D0EB0202DA
:1004C00063EBE073009821464FEAE074B8EB00005C
:1004D00061EB0401E9E783F000435BE781F0004151
:1004E00058E770B521F0004303430CD0C1F30A551F
:1004F0000024D5EB040564EB0403D617AD1AB34111
:1005000002DB0020014670BD201841EB025170BD96
:1005100096230022114600F07CB80EB540F233411C
:1005200002910021CDE900110A460B4600F0AEF819
:1005300003B000BD00F0004230F000400AD0C10D11
:1005400001F56071C0F3160042EA0151C20840078C
:100550001143704700200146704701F0004330B45A
:1005600021F0004150EA010206D00A0DA2F56072A6
:10057000C1F31301002A02DC30BC00207047440F95
:1005800044EAC104C100E01830BC00EBC25000F0E6
:1005900037B830B50B46014600202022012409E07F
:1005A00021FA02F59D4205D303FA02F5491B04FA2C
:1005B00002F52844151EA2F10102F1DC30BD202A0B
:1005C00004DB203A00FA02F1002070479140C2F1AA
:1005D000200320FA03F3194390407047202A06DBDA
:1005E000CB17203A41FA02F043EAE07306E041FA01
:1005F00002F3D040C2F120029140084319467047EF
:100600000029A8BF7047401C490008BF20F0010026
:10061000704710B4B0FA80FC00FA0CF050EA010404
:1006200004BF10BC704749B1CCF1200421FA04F496
:1006300011FA0CF118BF012121430843A3EB0C016F
:10064000CB1D4FEA00614FEA102042BF002010BCD2
:10065000704700EBC35010440029A4BF10BC704782
:10066000401C490008BF20F0010010BC704710B5C5
:10067000141E73F1000408DA401C41F100019218C5
:100680005B411A4301D120F0010010BD2DE9F04D6E
:1006900092469B4611B1B1FA81F202E0B0FA80F2C3
:1006A00020329046FFF78BFF04460F4640EA0A00CF
:1006B00041EA0B0153465A46084313D0114653EA08
:1006C000010019D0C8F140025046FFF75EFD054613
:1006D0000E46504659464246FFF771FF084305D083
:1006E000012004E020463946BDE8F08D0020054396
:1006F00046EAE0762C4337430A986305E40AA0EB08
:1007000008000022FD0A44EA47540A3002D50020BE
:100710000146E9E7010510196941DDE908450019BD
:100720006941BDE8F04DA2E72DE9FE4F81EA0304DF
:1007300004F0004421F0004100944FF0000B23F03E
:10074000004350EA01045ED052EA03045BD0C3F3D5
:100750000A54C1F30A552C44A4F2F3340194A0FBCB
:100760000254C1F3130141F48011C3F3130343F4A2
:10077000801301FB024400FB034E840A970A44EAFB
:10078000815447EA8357A4FB076802958D0A05FB4D
:1007900007854FEA932C04FB0C542705029D4FEA72
:1007A000065847EA1637B5EB08056EEB070C870EBF
:1007B000920E47EA811742EA8312A7FB0201B6EBC9
:1007C0000B0164EB00042B0D43EA0C335E1844EB81
:1007D0001C50DA465146E7FB0201C5F313044FEA09
:1007E0000B3343EA14534FEA0432019C43EA0603F5
:1007F000A4F10C040294009CCDE900B4FFF746FF7D
:1008000003B0BDE8F08F00200146F9E72DE9F04D77
:1008100081EA030404F0004B21F0004514464FF038
:10082000000A23F0004150EA050220D054EA0102F8
:100830001DD0C5F30A570246C5F31303C1F31300D5
:10084000C1F30A5640F4801543F48013A7EB060861
:10085000101BD64608F2FD3873EB050002D308F1F1
:10086000010801E092185B41B8F1000F03DA0020A3
:100870000146BDE8F08D00204FF480110646844605
:100880000EE0171B73EB050705D3121B63EB050383
:1008900006434CEA010C49084FEA300092185B41CC
:1008A00050EA0107EDD152EA030012D082EA0400B7
:1008B00083EA0501084305D0101BAB4106D2012293
:1008C000002306E000224FF0004302E06FF0010237
:1008D00053101AEB06004CEB085110EB0A0041EBE9
:1008E0000B01BDE8F04DFFF7C2BEC1F30A52C1F3E0
:1008F000130140F2FF3341F480119A4202DA0020E2
:100900000146704740F233439A42A2F2334202DC7E
:100910005242FFF73ABCFFF752BE000030B5041E4A
:1009200071F1000404DB4FF00044404264EB01012C
:10093000141E73F1000405DB1C464FF000435242C5
:1009400063EB0403994208BF904230BD064C074D4B
:1009500006E0E06840F0010394E80700984710348F
:10096000AC42F6D3FFF7C6FBCC3F0008EC3F0008D3
:1009700070B504462068816811F0010F24D08168A9
:1009800021F00101816000F0F7FD054620688068D4
:1009900010F0010F18D000F0EFFD401B02280ED917
:1009A0002068806810F0010F09D0A06A40F01000A4
:1009B000A062E06A40F00100E062012070BD2068A2
:1009C000806810F0010FE6D1002070BD10B502461E
:1009D000506A816A11F0500F05D0006A016BBDE8C2
:1009E000104010460847816A41F400718162016835
:1009F00089684FF4602232EA01010DD1017B59B9B7
:100A0000816A21F480718162816A11F4805F03D16F
:100A1000816A41F00101816200F01EF910BD10B53C
:100A2000406A816A41F040018162C16A41F004017B
:100A3000C16200F013F910BD10B5406A00F00DF965
:100A400010BD0000F8B504460026009620688168B5
:100A500011F0010F28D1816841F00101816019482E
:100A600019490068B0FBF1F00090009828B1009897
:100A7000401E009000980028F9D100F07DFD054649
:100A80002068806810F0010F0ED100F075FD401B4A
:100A9000022804D92068806810F0010F06D0206871
:100AA000806810F0010FF0D00020F8BDA06A40F07F
:100AB0001000A062E06A40F00100E06284F8246067
:100AC0000120F8BD0800002040420F00FEE70000B2
:100AD000014800F0DBBA00005000002010B490F88C
:100AE00040C0012404FA0CFCC46BC4F804C0D0F864
:100AF00000C0CCF804304368102B05D0036899601F
:100B00000068C26010BC704703689A600068C160EA
:100B100010BC7047704710B54FF4806000F028FC9F
:100B2000BDE810404FF4004000F022BC70470000C8
:100B300078B44FF0000C0024009490F82420012A8F
:100B400014D0012280F824204A681F25072A10D2D9
:100B500003685E6B521E02EB8202954026EA050591
:100B60000E6806FA02F22A435A631FE078BC02209C
:100B700070470D2A0DD203681E6BD21F02EB820252
:100B8000954026EA05050E6806FA02F22A431A6322
:100B90000CE00368DE6A0D3A02EB8202954026EA19
:100BA00005050E6806FA02F22A43DA620A6807258A
:100BB0000A2A0DD30368DE680A3A02EB4202954026
:100BC00026EA05058E6806FA02F22A43DA600BE08F
:100BD00003681E6902EB4202954026EA05058E680D
:100BE00006FA02F22A431A610A68102A01D0112A71
:100BF0000BD10268A2F18043B3F592330AD0816A27
:100C000041F0200181624FF0010C80F8244078BC53
:100C100060467047936813F4000FF6D1936843F46D
:100C20000003936009681029EFD10949094A09684E
:100C3000B1FBF2F101EB810149000091009900291B
:100C4000E3D00099491E009100990029F9D1DCE711
:100C50000800002040420F007047704770470000B6
:100C60002DE9F041044600270025002C03D0A06A9E
:100C7000002618B108E00120BDE8F081E66284F8A2
:100C80002460204600F07CF82046FFF771FE014604
:100C9000A06A10F0100F00D139B1A06A40F0100026
:100CA000A06201210846BDE8F081A06A20F48850C6
:100CB00040F00200A062E2696068237B104347EACB
:100CC00043020243A068B0F5807F08D0012806D017
:100CD000002094F814C0BCF1010F03D00BE04FF4D6
:100CE0008070F6E7F3B1A36A43F02003A362E36ADE
:100CF00043F00103E3622368D3F804C02CF4694C89
:100D00004CEA0000586020688368DFF86CC003EA92
:100D10000C0313438360A068B0F5807F09D00128DD
:100D200007D009E0A3695B1E40EA433040F400604D
:100D3000E1E7208A401E05052068C36A23F470039A
:100D40002B43C362206880680C4B1840904207D147
:100D5000E662A06A20F0020040F00100A062A1E774
:100D6000A06A20F0020040F01000A062E06A40F0AB
:100D70000100E062012195E7FDF7E1FFFE0E1FFF94
:100D800070B586B000260546009601960296039639
:100D900000681A4988422FD11949886940F40070C7
:100DA0008861886900F400700490886940F004004C
:100DB00088618869694600F004000490062000906C
:100DC000032001900F4800F0DFFA104C0E48C4E9F0
:100DD00000068020C4E9026040002061800060615C
:100DE0002020A061C001E061204600F007FA08B1B0
:100DF000FFF79CFE2C62656206B070BD00240140C6
:100E0000001002400008014008000240500000208D
:100E10002DE9F0470446884691462068434F444EEA
:100E2000A0F1804ABAF5923A01D0B84207D13068B1
:100E300010F4702F03D001252846BDE8F08794F800
:100E4000240001280BD0012084F824002046FFF75D
:100E5000F9FD054600212DB184F82410ECE70220AD
:100E6000BDE8F087A06A20F0010020F4606040F443
:100E70008070A0622068B8421AD1326812F4702FD4
:100E800016D0A26A42F48012A262306810F4806F19
:100E900005D0A06A20F4005040F48050A062A06AFF
:100EA00010F4805F13D0E06A20F00600E0620FE0EB
:100EB000A26A22F48012A262406810F4806FEED021
:100EC000A06A20F4005040F48050A062E7E7E1629D
:100ED00084F82410216A17488862216A1648C8627B
:100EE000216A1648086321686FF0020008602068D4
:100EF000816841F48071816020684B4600F14C01AB
:100F00004246206A00F0BCF9206881684FF46022F4
:100F100032EA010104D0816841F4801181608BE7DD
:100F2000816841F4A001816086E70000002801404B
:100F300004240140CD090008390A00081F0A0008EE
:100F400010B5044694F82400012808D0012084F844
:100F500024002046FFF70CFD014611B113E00220EA
:100F600010BD2068826822F480728260206A90F846
:100F70002120022A07D100F012F8014641B1A06AEF
:100F800040F04000A062002084F82400084610BD14
:100F9000A06A20F4885040F00100A062F3E790F8C6
:100FA00021100022022905D00421816380F820202D
:100FB0000120704701680B6823F00E030B60016885
:100FC0000B6823F001030B6090F84030D0F83CC070
:100FD000012101FA03F3CCF8043080F8211080F8E5
:100FE000202010467047000010B5002490F8211012
:100FF000022903D004218163012437E001680A68D3
:1010000022F00E020A6001680A6822F001020A60FA
:10101000174A0168914201D101211CE0154A914211
:1010200001D1102117E0144A914201D1891512E033
:10103000124A914201D189140DE0114A914202D124
:101040004FF4803107E00F4A914202D14FF48011F2
:1010500001E04FF080710C4A5160012180F82110AD
:10106000002180F82010416B01B18847204610BD57
:10107000080002401C0002403000024044000240D0
:10108000580002406C000240000002402DE9F05F71
:10109000C16B0A6801680B68D0F840C0042404FAE8
:1010A0000CF414424E4C4F4D4F4E504FDFF84081E0
:1010B000DFF8409131D013F0040F2ED00A6812F0FF
:1010C000200F03D10A6822F004020A600168A142DD
:1010D00001D1042119E0A94201D1402115E0B1421A
:1010E00002D14FF4806110E0B94202D14FF4804147
:1010F0000BE0414502D14FF4802106E0494502D181
:101100004FF4800101E04FF080613B4A5160C16AB9
:10111000002962D0BDE8F05F08474FF0020A0AFAE2
:101120000CFA1AEA020F4FF0000A4FF0010B35D00B
:1011300013F0020F32D00A6812F0200F05D10A68AE
:1011400022F00A020A6080F821B00168A14201D1B0
:10115000022119E0A94201D1202115E0B14202D1BA
:101160004FF4007110E0B94202D14FF400510BE08E
:10117000414502D14FF4003106E0494502D14FF418
:10118000001101E04FF000711B4A516080F820A06F
:10119000816A002921D0BDE8F05F0847082404FADD
:1011A0000CFC1CEA020F18D013F0080F15D00A68C7
:1011B00022F00E020A6090F84010C26B0BFA01F1A7
:1011C0005160C0F838B080F821B080F820A0016BE1
:1011D000002902D0BDE8F05F0847BDE8F09F00009D
:1011E000080002401C00024030000240440002405F
:1011F000580002406C0002400000024010B4002879
:1012000034D01C4A01688B181B4AA2FB0332120916
:1012100092000264194AC263022280F821200A68FF
:101220006FF30D12D0F808C04368046943EA0C0359
:10123000D0F80CC04CEA040C43EA0C03D0F814C0FC
:1012400043EA0C03D0F818C043EA0C03D0F81CC0E2
:1012500043EA0C031A430A6000218163012280F8EB
:10126000212080F8201010BC0020704710BC012005
:1012700070470000F8FFFDBFCDCCCCCC0000024091
:1012800070B50446002594F8200001280DD00120F7
:1012900084F8200094F821C00020BCF1010F06D092
:1012A00084F820000225284670BD022070BD4FF052
:1012B000020C84F821C0A0632068D0F800C02CF094
:1012C000010CC0F800C02046FFF708FCE06A28B116
:1012D0002068016841F00E01016009E020680168A2
:1012E00021F0040101602068016841F00A010160F9
:1012F0002068016841F001010160D4E770B504463F
:1013000000F03AF90546B4F1FF3F02D004480078F6
:10131000044400F031F9401BA042FAD370BD000034
:101320000C0000202DE9F0410F4D04460F4F288896
:10133000002640B93CB1384600F056FE3868466297
:101340002C80BDE8F081094800F0A1FE3868416AB0
:10135000A980466228884FF4F841001B90FBF1F009
:10136000801C2880EDE7000000000020DC00002049
:1013700010B504490A68024202D00860FFF7D2FFA4
:1013800010BD0000140401402DE9F84F4FF0000C8F
:1013900000230A68002A7DD0DFF8D0810F2708F1EA
:1013A000040909F1040A0AF1040B012202FA0CF6FD
:1013B0000A683240B2426ED1DFF8B4E14C68A4EB67
:1013C0000E0574452BD00DDC032C34D005DC34B372
:1013D000012C19D0022C2FD11BE0112C16D0122C6D
:1013E0002AD119E0B5F5881F19D006DCB5F5803F84
:1013F00015D0B5F5801F1FD111E0B5F5001F0ED037
:10140000B5F5041F18D10AE0CB6815E0CB681B1DA9
:1014100012E0CB6808330FE0CB680C330CE08B682C
:1014200023B1012B04D00823466105E0042303E027
:101430000823066100E00023B2F5807F01D2054653
:1014400001E000F1040502D24FEA8C0403E0ACF1A4
:1014500008044FEA84042E6807FA04FE26EA0E0602
:1014600003FA04F446EA04042C604C6814F0805F2C
:1014700072D0404CA56945F00105A561A46904F04E
:10148000010400942CF0030404F1804404F580343A
:10149000A66801E067E05FE04FEA8C754FEA1575DA
:1014A00007FA05FE26EA0E0EA0F18046B6F5843650
:1014B00019D0A0F18046B6F5863616D0A0F1804648
:1014C000B6F5883613D0032606FA05F545EA0E056B
:1014D000A5604C6814F4803F0BD0D8F8004014434A
:1014E000C8F800400AE00026EEE70126ECE70226F5
:1014F000EAE7D8F800409443C8F800404C6814F478
:10150000003F05D0D9F800401443C9F8004004E07A
:10151000D9F800409443C9F800404C6814F4801F87
:1015200005D0DAF800401443CAF8004004E0DAF8C5
:1015300000409443CAF800404C6814F4001F05D0E2
:10154000DBF800402243CBF8002005E0DBF8004048
:1015500024EA0202CBF800200CF1010C0A6832FAEE
:101560000CF27FF422AFBDE8F88F000000040140C8
:101570000000111000100240014880687047000010
:101580000C00002002488168027811448160704795
:101590000C00002010B50748016841F010010160FF
:1015A000032000F08BF8002000F006F800F026F889
:1015B000002010BD0020024070B504460D4D4FF4D0
:1015C0007A712878B1FBF0F00B490968B1FBF0F0B3
:1015D00000F056FC08B1012070BD102C07D200228B
:1015E0002146501E00F036F86C60002070BD0120CE
:1015F00070BD00000C000020080000200C4808B559
:10160000816941F001018161816901F0010100916D
:10161000C16941F08051C161C06900F08050009003
:101620000448416821F0E06141F00071416008BD6B
:10163000001002400000014000280ADB00F01F01FA
:10164000012202FA01F14009800000F1E020C0F817
:101650000011704710B4184B1B68C3F30223C3F189
:10166000070CBCF1040F01D94FF0040C1C1D072C12
:1016700001D2002300E0DB1E012404FA0CFCACF1D3
:10168000010C0CEA0101994004FA03F35B1E1A40B5
:101690001143002806DB00F1E020090180F8001466
:1016A00010BC704700F00F0000F1E020090180F845
:1016B000141D10BC704700000CED00E000F00700A6
:1016C000064A11684FF6FF03194041EA002040F036
:1016D000FD7040F080601060704700000CED00E08D
:1016E0002DE9F8430446DFF81C81207810F0010F43
:1016F0006CD00027D8F81C0010F0805F0BD1D8F810
:101700001C0040F08050C8F81C00D8F81C0000F005
:101710008050009001273C4D286810F4807F16D13E
:10172000286840F480702860FFF726FF0646286886
:1017300010F4807F0BD1FFF71FFF801B642802D9B4
:101740000320BDE8F883286810F4807FF3D0D8F830
:10175000200000F4407048B3A18801F44071814238
:1017600024D0D8F8200020F44070284901220A60D3
:1017700000220A60C8F8200010F0010F16D0FFF711
:10178000FBFE0546D8F8200010F0020F0ED141F202
:101790008836FFF7F1FE401BB04202D90320BDE8B6
:1017A000F883D8F8200010F0020FF2D0D8F820000B
:1017B000616820F440700843C8F82000012F05D16B
:1017C000D8F81C0020F08050C8F81C00207810F0D9
:1017D000020F07D0D8F80400A16820F44040084365
:1017E000C8F80400207810F0100F07D0D8F80400D3
:1017F000E16820F480000843C8F804000020BDE838
:10180000F883000000100240007000404004424293
:101810002DE9F04704460D46002C17D0DFF85C8117
:10182000D8F8000000F00700A84212D2D8F8000053
:1018300020F007002843C8F80000D8F8000000F0A6
:101840000700A84205D00120BDE8F0870120BDE8CF
:10185000F08720684A4E10F0020F14D010F0040FE9
:1018600003D0706840F4E0607060207810F0080FDA
:1018700003D0706840F460507060706820F0F00130
:10188000A06808437060207810F0010F3AD06068BB
:10189000012806D002280BD0316811F0020F27D0A2
:1018A0000AE0316811F4003F06D10120BDE8F0875D
:1018B000316811F0007F18D0716821F003010843EE
:1018C0007060FFF759FE07467068616800F00C0011
:1018D000B0EB810F16D041F28839FFF74DFEC01BE7
:1018E000484508D90320BDE8F0870120BDE8F0870E
:1018F0000120BDE8F0877068616800F00C00B0EB73
:10190000810FEAD1D8F8000000F00700A8420FD9F3
:10191000D8F8000020F007002843C8F80000D8F8E5
:10192000000000F00700A84202D00120BDE8F087C7
:10193000207810F0040F05D07068E16820F4E060B2
:1019400008437060207810F0080F06D07068216995
:1019500020F4605040EAC100706000F03FF8716808
:10196000084AC1F30311515CC840074908600748A1
:101970000068FFF721FE0020BDE8F087002002404C
:1019800000100240B43F00080800002010000020B2
:1019900001480068704700000800002000B5FFF70C
:1019A000F7FF04494968044AC1F30221515CC84069
:1019B00000BD000000100240C43F000800B5FFF762
:1019C000E7FF04494968044AC1F3C221515CC84099
:1019D00000BD000000100240C43F000885B015A003
:1019E000836842680168C068039302920191049081
:1019F00014A000680090144B5968144801F00C02C0
:101A0000042A11D0082A0FD101A8C1F38342805CB7
:101A100011F4803F0AD05968C1F340411DF801100C
:101A20000A4A5043B0FBF1F005B07047084905B0D1
:101A30004843704702030405060708090A0B0C0D0A
:101A40000E0F1010010200000010024000127A0078
:101A500000093D002DE9F84F0446002C0FD02078F6
:101A6000F84D10F0010F6CD0686800F00C000428ED
:101A70000CD0686800F00C00082803D010E00120AA
:101A8000BDE8F88F686810F4803F09D0286810F42A
:101A9000003F56D06068002853D10120BDE8F88F80
:101AA0006068B0F5803F15D0C8B1B0F5A02F1FD049
:101AB000286820F480302860286820F4802028607E
:101AC000606858B3FFF758FD0646286810F4003FD9
:101AD00017D036E0286840F480302860F0E72868A6
:101AE00020F480302860286820F480202860E7E710
:101AF000286840F480202860286840F480302860FE
:101B0000DEE7FFF739FD801B642802D90320BDE81A
:101B1000F88F286810F4003FF3D012E0FFF72CFD97
:101B20000646286810F4003F0BD0FFF725FD801B08
:101B3000642802D90320BDE8F88F286810F4003F1C
:101B4000F3D12078C04F10F0020F4FF0010B4FF08F
:101B5000000854D0686810F00C0F14D0686800F0CA
:101B60000C00082803D1686810F4803F0BD020696E
:101B700078B3C7F800B0FFF7FFFC0646286810F0FE
:101B8000020F12D01DE0286810F0020F05D0206966
:101B9000012802D00120BDE8F88F2868616920F093
:101BA000F80040EAC100286029E0FFF7E5FC801B4F
:101BB000022802D90320BDE8F88F286810F0020F30
:101BC000F3D02868616920F0F80040EAC10028607D
:101BD00015E0FFE7C7F80080FFF7CEFC064628684F
:101BE00010F0020F0BD0FFF7C7FC801B022802D9B0
:101BF0000320BDE8F88F286810F0020FF3D1207899
:101C000010F0080F30D09148A169C1B1C0F800B000
:101C1000FFF7B2FC0646686A10F0020F0BD1FFF71F
:101C2000ABFC801B022802D90320BDE8F88F686A4C
:101C300010F0020FF3D0012001F0B2F814E0C0F868
:101C40000080FFF799FC0646686A10F0020F0BD07F
:101C5000FFF792FC801B022802D90320BDE8F88F11
:101C6000686A10F0020FF3D1207810F0040F6FD0E3
:101C70000026E86910F0805F08D1E86940F08050E4
:101C8000E861E86900F0805000900126DFF8C0A10B
:101C9000DAF8000010F4807F1BD1DAF8000040F47D
:101CA0008070CAF80000FFF767FC8146DAF8000090
:101CB00010F4807F0DD1FFF75FFCA0EB09006428D2
:101CC00002D90320BDE8F88FDAF8000010F4807F15
:101CD000F1D0E068012816D0D0B1052821D0286ABB
:101CE00020F001002862286A20F004002862E068E1
:101CF00041F2883A68B3FFF73FFC8146286A10F04A
:101D0000020F17D03AE0286A40F001002862EEE79F
:101D1000286A20F001002862286A20F00400286266
:101D2000E5E7286A40F004002862286A40F00100D4
:101D30002862DCE7FFF720FCA0EB0900504502D940
:101D40000320BDE8F88F286A10F0020FF2D015E0EA
:101D50001AE0FFE7FFF710FC8146286A10F0020F37
:101D60000CD0FFF709FCA0EB0900504502D9032075
:101D7000BDE8F88F286A10F0020FF2D1012E03D1CE
:101D8000E86920F08050E861E069E8B3696801F033
:101D90000C0108295ED0022810D0C7F86080FFF738
:101DA000EBFB0446286810F0007F66D0FFF7E4FBE9
:101DB000001B022841D90320BDE8F88FC7F86080D6
:101DC000FFF7DAFB0646286810F0007F0BD0FFF71C
:101DD000D3FB801B022802D90320BDE8F88F2868B6
:101DE00010F0007FF3D1206AB0F5803F05D168681C
:101DF000A16820F4003008436860616A206A0843E3
:101E0000696821F4741100E037E008436860C7F89E
:101E100060B0FFF7B1FB0446286810F0007F2CD1BA
:101E2000FFF7AAFB001B022802D90320BDE8F88FA8
:101E3000286810F0007FF3D01FE0286810F0007FC2
:101E4000B4D11AE000100240000042428004424235
:101E50000070004001280DD06868226A00F48031CB
:101E6000914204D1616A00F47010884205D00120CB
:101E7000BDE8F88F0120BDE8F88F0020BDE8F88F9D
:101E8000401EB0F1807F01D3012070474FF0E02168
:101E90004861044AF0201070002088610720086122
:101EA0000020704723ED00E07047704730B490F891
:101EB0003C20012A2BD0012480F83C40022280F8EB
:101EC0003D200268D2F804C093682CF0700C0D68B5
:101ED00045EA0C0CC2F804C00268A2F1804CBCF5C3
:101EE000963C07D0B2F1804F04D0A2F1804CBCF5F3
:101EF000806C04D123F0800349681943916080F815
:101F00003D40002180F83C1030BC0020704730BCC0
:101F10000220704710B50446002C03D094F83D0011
:101F200010B107E0012010BD002084F83C002046DD
:101F300000F01EF8022084F83D00211D206800F00A
:101F400081FF012084F8460084F83E0084F83F00B9
:101F500084F8400084F8410084F8420084F843008B
:101F600084F8440084F8450084F83D00002010BD4A
:101F700008B51A4A01681A4891420ED1816941F4A4
:101F8000006181618069002200F4006000901146C8
:101F90001920FFF75FFB19201CE0B1F1804F0BD037
:101FA000104A914207D1C16941F00201C161C06983
:101FB00000F00200009008BDC16941F00101C1615B
:101FC000C069002200F00100009011461C20FFF7BC
:101FD00041FB1C20BDE80840FFF72EBB002C014050
:101FE000001002400004004090F83D10012901D08B
:101FF00001207047022180F83D100068A0F1804167
:10200000B1F596310DD0B0F1804F0AD0A0F18041EA
:10201000B1F5806105D0016841F001010160002047
:102020007047816801F007010629F8D0016841F086
:1020300001010160F3E790F83D10012901D0012072
:102040007047022180F83D100168CA6842F0010221
:10205000CA600068A0F18041B1F596310DD0B0F1B1
:10206000804F0AD0A0F18041B1F5806105D00168B0
:1020700041F00101016000207047816801F0070113
:102080000629F8D0016841F001010160F3E7016819
:102090000A6A41F211131A4207D10A6A9B101A42C6
:1020A00003D10A6822F001020A60012180F83D1084
:1020B000002070470168CA6822F00102CA60016806
:1020C0000A6A41F211131A4207D10A6A9B101A4296
:1020D00003D10A6822F001020A60012180F83D1054
:1020E0000020704770B5044694F83C00012818D0D1
:1020F000012584F83C50022084F83D002068826865
:1021000022F0770222F47F4282600868502832D0A1
:102110000EDC20284DD006DC00284AD010284DD1F6
:1021200047E0022070BD302843D0402846D136E039
:1021300060282AD0702806D0B0F5805F3ED0B0F578
:10214000005F3BD10BE0CB684A688968206800F0EB
:10215000BCFE2068816841F0770181602EE0CB6889
:102160004A688968206800F0B0FE2068816841F400
:102170008041816022E0CA684968206800F07BFFE6
:102180005021206800F0ACFE18E0CA684968206859
:1021900000F084FF6021206800F0A2FE0EE0CA6813
:1021A0004968206800F067FF4021206800F098FE31
:1021B00004E022680146104600F092FE84F83D508B
:1021C000002084F83C0070BD704770B5044620685C
:1021D00001694FF0000511F0020F17D0C16811F02E
:1021E000020F13D0E91E0161012020772068806969
:1021F00010F0030F03D02046FFF7E6FF05E020466E
:1022000000F0C4F8204600F05AF9257720680169EB
:1022100011F0040F18D0C16811F0040F14D06FF042
:1022200004010161022020772068806910F4407F5A
:1022300003D02046FFF7C8FF05E0204600F0A6F8CF
:10224000204600F03CF925772068016911F0080F5D
:1022500018D0C16811F0080F14D06FF008010161A7
:10226000042020772068C06910F0030F03D02046B7
:10227000FFF7AAFF05E0204600F088F8204600F0AE
:102280001EF925772068016911F0100F18D0C16878
:1022900011F0100F14D06FF01001016108202077A9
:1022A0002068C06910F4407F03D02046FFF78CFF00
:1022B00005E0204600F06AF8204600F000F9257796
:1022C0002068016911F0010F09D0C16811F0010FF8
:1022D00005D06FF001010161204600F07DF9206812
:1022E000016911F0800F09D0C16811F0800F05D08D
:1022F0006FF0800101612046FFF7D6FD206801697B
:1023000011F0400F09D0C16811F0400F05D06FF0F7
:1023100040010161204600F079F92068016911F05F
:10232000200F0BD0C16811F0200F07D06FF02001F3
:1023300001612046BDE87040FFF7B7BD70BD0000E9
:1023400000B585B0002100910191029103910068D0
:102350000B49884211D10B48816941F00801816124
:102360008069022100F0080004900120CDE90001FD
:10237000039069460448FFF707F805B000BD000068
:102380000004004000100240000C0140704770B58E
:1023900004460D4694F83C0001280AD0012084F838
:1023A0003C0042B1042A1AD0082A2DD00C2A53D15D
:1023B0003EE0022070BD2946206800F099FD2068AB
:1023C000816941F0080181612068816921F004017F
:1023D0008161206881692A69114381613CE0294655
:1023E000206800F0B9FD2068816941F400618161D5
:1023F0002068816921F480618161206881692A698E
:1024000041EA0221816127E02946206800F0D8FDD9
:102410002068C16941F00801C1612068C16921F0EB
:102420000401C1612068C1692A691143C16113E0D7
:102430002946206800F0F8FD2068C16941F4006178
:10244000C1612068C16921F48061C1612068C169EE
:102450002A6941EA0221C161002084F83C0070BD74
:1024600010B50446002C03D094F83D0010B107E0ED
:10247000012010BD002084F83C00204600F01EF82A
:10248000022084F83D00211D206800F0DBFC0120C3
:1024900084F8460084F83E0084F83F0084F8400049
:1024A00084F8410084F8420084F8430084F8440032
:1024B00084F8450084F83D00002010BD7047704747
:1024C00010B50446002909D004290AD008290BD0E8
:1024D00094F8410001280AD0012010BD94F83E0074
:1024E000F8E794F83F00F5E794F84000F2E702209F
:1024F00061B304292DD008292ED084F8410001228F
:10250000206800F0D3FC16492068884203D1426C51
:1025100042F400424264206888420DD0B0F1804FFE
:102520000AD0A0F18041B1F5806105D0016841F089
:1025300001010160002010BD816801F0070106293A
:10254000F8D0016841F001010160F3E784F83E0032
:10255000D5E784F83F00D2E784F84000CFE70000D9
:10256000002C014030B504460D4600222946206863
:1025700000F09CFC206841F211129110A0F1804300
:10258000B3F5963309D1036A134206D1036A0B42AD
:1025900003D1436C23F4004343642068036A13426D
:1025A00006D1026A0A4203D1016821F001010160EB
:1025B00001203DB1042D08D0082D09D084F8410038
:1025C000002030BD84F83E00FAE784F83F00F7E7CA
:1025D00084F84000F4E70000094A0A49904205D116
:1025E0004888002801D0401E48807047064A904223
:1025F000FBD108880A28F8D900200880704700001D
:102600009400002000000020DC000020704770478C
:1026100070470000F8B5044622681068D168536915
:1026200000F00F0CBCF1000F0AD110F0200F07D002
:1026300011F0200F04D02046BDE8F84000F06DBD39
:102640000025BCF1000F6DD003F0010C01F4907671
:102650005CEA060666D010F0010F06D011F4807F08
:1026600003D0226C42F00102226410F0040F06D065
:1026700013F0010F03D0226C42F00202226410F02A
:10268000020F06D013F0010F03D0226C42F00402B7
:10269000226410F0080F08D001F0200252EA0C0268
:1026A00003D0226C42F008022264226C002A2FD050
:1026B00010F0200F05D011F0200F02D0204600F0BE
:1026C0002CFD20684069C0F38010216C11F0080FC8
:1026D00000D110B3204600F0FBFC2068416911F0E6
:1026E000400F16D0416921F040014161A06B60B1FB
:1026F00047494163A06BFEF777FC002808D0A06B28
:10270000416B01B0BDE8F04008472046FFF780FF6D
:10271000F8BD2046FFF77CFFF8BD2046FFF778FFA5
:102720002564F8BD236B012B5BD110F0100F58D03E
:1027300011F0100F55D010685068009050694FF09C
:10274000200310F0400F2ED0A16B0868406880B2C3
:102750000028E6D0B4F82CC08445E2D9E085886929
:10276000202818D0D06820F48070D060206841699B
:1027700021F0010141612068416921F0400141617E
:1027800084F83E3025632068C16821F01001C160E3
:10279000A06BFEF704FCA08DE18D401A81B22046AB
:1027A000FFF735FFF8BDA08DE18D401A81B2E08DB5
:1027B0000028F7D00029F5D0D06820F49070D060C0
:1027C0002068426922F00102426184F83E302563AC
:1027D0002068C26822F01002C2602046FFF717FF8F
:1027E000F8BD10F0800F07D011F0800F04D0204604
:1027F000BDE8F84000F054BD10F0400FF0D011F0EB
:10280000400FEDD02046BDE8F84000F079BC000054
:10281000C130000870B50446002C04D094F83D0087
:10282000002510B106E0012070BD84F83C50204620
:1028300000F022F8242084F83D002068C16821F4CB
:102840000051C160204600F0C7FC2068016921F4F6
:10285000904101612068416921F02A0141612068AD
:10286000C16841F40051C1602564202084F83D0016
:1028700084F83E00002070BD30B585B0002400947F
:1028800001940294039400681B49884232D11B488A
:10289000816941F480418161816901F48041049141
:1028A000816941F0080181618069154D00F00800DF
:1028B000049040200090022001900320039069467C
:1028C0002846FEF761FD8020CDE9000469462846D0
:1028D0000294FEF759FD0B48416841F0E06141F078
:1028E00004014160002211462520FEF7B3FE252099
:1028F000FEF7A2FE05B030BD0038014000100240D6
:10290000000C0140000001402DE9F84304460E464A
:1029100015461F4694F83E00202802D00220BDE84C
:10292000F883D6B1CDB194F83C00012818D001202D
:1029300084F83C004FF00009C4F84090222084F84D
:102940003E00C4F83090FEF717FE8046A585E58569
:10295000A068B0F5805F06D007E00120BDE8F883ED
:102960000220BDE8F883206980B13546002684F84E
:102970003C90E08D40B34346002220212046009742
:1029800000F0BDFC20B10320BDE8F8830025EEE790
:102990002DB1A068B0F5805F1CD038B108E0206888
:1029A0004068C0F308003080B61C07E0206988B199
:1029B0002068406800F07F0028706D1CE08D401E8C
:1029C000E085E08D0028D6D1202084F83E0000204C
:1029D000BDE8F883206840682870EEE770472DE96D
:1029E000F84304460E4615461F4694F83D0020283D
:1029F00002D00220BDE8F883C6B1BDB194F83C0016
:102A0000012816D0012084F83C004FF00009C4F8DA
:102A10004090212084F83D00FEF7AEFD8046A5845D
:102A2000E584A068B0F5805F06D007E00120BDE82E
:102A3000F8830220BDE8F883206980B1354600267E
:102A400084F83C90E08CB8B14346002280212046B7
:102A5000009700F054FC20B10320BDE8F883002566
:102A6000EEE7A5B12168287848606D1CE08C401E17
:102A7000E084E08C0028E7D1434600224021204634
:102A8000009700F03CFC48B10320BDE8F883308893
:102A90002168C0F308004860B61CE7E7202084F8EE
:102AA0003D000020BDE8F8837047FEE770B50821BF
:102AB0000B48FFF705FD0A4C00202168C8634FF45E
:102AC000FA752846FEF71AFC21686800C863284694
:102AD000FEF714FC2046BDE870400821FFF742BD18
:102AE00024010020FEB500241648009401941449E6
:102AF0000294016089158160012606730475022520
:102B000005614FF460214460C161FEF7A9F808B186
:102B1000FEF70CF80096CDE9016469460948FEF716
:102B200007F808B1FEF702F80095694605480195D7
:102B3000FDF7FEFF002801D0FDF7F8FFFEBD000005
:102B40000024014020000020094808B5416941F0F7
:102B5000010141614069002200F00100009011462E
:102B60000B20FEF777FDBDE808400B20FEF764BDA3
:102B70000010024030B585B00020039019488169EB
:102B800041F020018161816901F020010491816996
:102B900041F004018161816901F0040104918169BE
:102BA00041F00801816180690F4C00F00800049039
:102BB0004FF4004001258DE8310069460B48FEF7CF
:102BC000E3FBA8028DE8310069460948FEF7DCFB0B
:102BD000002211462820FEF73DFD2820FEF72CFD9F
:102BE00005B030BD0010024000001110000C014083
:102BF0000008014010B586B00024174800940194E5
:102C00000294039404941349059401604721C0E998
:102C100001141321C0E9031444618461FFF77AF9B8
:102C200008B1FDF783FF4FF48050009069460A48D1
:102C3000FFF758FA08B1FDF779FF2020CDE9040429
:102C400004A90548FFF732F9002801D0FDF76EFF0F
:102C500006B010BD002C01409400002010B586B0D5
:102C600000241748009401940294039404944FF0B4
:102C70008041059401604721C0E9011442F20F71BF
:102C8000C0E9031480218161FFF744F908B1FDF721
:102C90004DFF4FF48050009069460948FFF722FA33
:102CA00008B1FDF743FF2020CDE9040404A904483E
:102CB000FFF7FCF8002801D0FDF738FF06B010BD83
:102CC000DC00002010B58EB000240794089409940D
:102CD0000A940B941C2168460C94FDF76DFA1F486A
:102CE0001D4901604721C0E9011440F2E731C0E904
:102CF00003148461FFF70EF908B1FDF717FF4FF4D5
:102D00008050079007A91548FFF7ECF908B1FDF7C7
:102D10000DFF1248FFF7A4FB08B1FDF707FF0B9466
:102D20000BA90E480C94FFF7C1F808B1FDF7FEFEA1
:102D3000602000904FF4FA70CDE901040822694642
:102D400006480494FFF723FB08B1FDF7EFFE0348A4
:102D5000FFF7F6FA0EB010BD000400402401002079
:102D60000C4810B50A4901604FF4E131416000217F
:102D700081600C22C160C0E904128161C161FFF76A
:102D800049FD002803D0BDE81040FDF7CFBE10BDBF
:102D9000003801406C010020FEE7704770470000DA
:102DA00081B007494FF4FA520968B1FBF2F1484388
:102DB000009000BF0098411E0091FAD201B0704708
:102DC000080000207047FEF7DDBB30B593B0282126
:102DD0006846FDF7F1F914210AA8FDF7EDF9002482
:102DE00001200F9410941194010412948DE81300A3
:102DF00004904FF4E010CDE90810022507956846CD
:102E0000FEF728FE0F20CDE90A056802CDE90C4047
:102E100002210AA80E94FEF7FBFCA80311900F955F
:102E20000FA8FEF75DFC13B030BD70470148FFF7F7
:102E3000CCB90000940000200148FFF7C6B900009B
:102E4000DC00002010B40268164BDFF85CC098422A
:102E500004D0B0F1804F01D0604503D122F0700260
:102E60004C682243984204D0B0F1804F01D06045B5
:102E700005D122F44072D1F80CC04CEA0202D1F81C
:102E800014C022F0800242EA0C0202608A68C26228
:102E90000A688262984201D1096901630121416196
:102EA00010BC7047002C01400004004001F01F01DD
:102EB00001238B40D0F820C02CEA03030362036A8D
:102EC00002FA01F1194301627047D0F808C02CF4EE
:102ED0007F4C42EA0322114341EA0C0181607047B2
:102EE000826822F07002114341F00701816070474F
:102EF00010B4026A22F001020262036A4268D0F84A
:102F000018C02CF0700C2CF0030C0C6844EA0C0C6C
:102F100023F002038C6823430E4CA04206D123F019
:102F20000803CC6844EA030323F0040309D122F424
:102F3000807222F400724C6944EA02028C6944EA0D
:102F400002024260C0F818C049684163036210BCC5
:102F500070470000002C014010B4026A22F01002F9
:102F60000262036A4268D0F818C02CF4E04C2CF4DA
:102F7000407C0C684CEA042C23F020038C6843EA64
:102F800004130E4CA04206D123F08003CC6843EA20
:102F9000041323F0400309D122F4806222F400627A
:102FA0004C6942EA84028C6942EA84024260C0F8B9
:102FB00018C049688163036210BC7047002C01404F
:102FC00010B4026A22F480720262036A4268D0F886
:102FD0001CC02CF0700C2CF0030C0C6844EA0C0C98
:102FE00023F400738C6843EA04230E4CA04206D1FC
:102FF00023F40063CC6843EA042323F4806309D1FB
:1030000022F4805222F400524C6942EA04128C6984
:1030100042EA04124260C0F81CC04968C1630362FE
:1030200010BC7047002C014010B4026A22F4805298
:103030000262036A4268D0F81CC02CF4E04C2CF405
:10304000407C0C684CEA042C23F400538C6843EA5F
:103050000433A0F18044B4F5963404D122F48042C4
:103060004C6942EA84124260C0F81CC0496801649D
:10307000036210BC7047036AD0F820C02CF0010C2A
:10308000C0F820C0D0F818C02CF0F00C4CEA0212A6
:1030900023F00A031943826101627047036A23F037
:1030A00010030362D0F818C0036A2CF4704C4CEA89
:1030B000023223F0A00343EA0111826101627047EA
:1030C00010B5406A0021C185C184FFF7A1FA10BD87
:1030D0000168CA6822F49072CA6001684A6922F0E5
:1030E00001024A61016B012904D10168CA6822F01A
:1030F0001002CA60202180F83E1000210163704751
:1031000010B50168CA6822F04002CA60202180F828
:103110003D10FFF7C9FC002010BD08B590F83E1027
:10312000222901D0022008BD8268B2F5805F01D15A
:10313000016929B1816AB2F5805F1DD052B10BE0FF
:10314000816A02685268C2F308020A80816A891C97
:10315000816209E002697AB10268526802F07F0276
:103160000A70816A491C8162C18D491E0904090CDB
:10317000C18505D0002008BD026852680A70F0E7DA
:103180000168CA6822F02002CA600168CA6822F495
:103190008072CA6001684A6922F001024A612021F6
:1031A00080F83E10016B012903D0FFF717FC0020C7
:1031B00008BD002101630168CA6822F01002CA60DC
:1031C00001680A6812F0100F02D00A68496800917D
:1031D000818DFFF71CFAEAE770B5044620680169A3
:1031E000E26821F44051114301612169A06808435C
:1031F000616901432068C26822F4037222F4A0527C
:103200001143C16020684169A26921F440711143F2
:1032100041612068A0F18041B1F59C313AD0FEF7C0
:10322000BDFB00EBC00101EB001061681B4A890087
:10323000B0FBF1F3A2FB0353B0FBF1FC5B096FF0B1
:1032400018056B430CEB83034FF0320C0CEB0313AC
:10325000A2FB03535B0903F0F005B0FBF1F3A2FB03
:1032600003635B0905EB0313B0FBF1F5B0FBF1F071
:10327000A2FB001040096FF01801484305EB8000E5
:103280000CEB0010A2FB00102168C0F3431018449F
:10329000886070BDFEF792FBC3E700001F85EB510D
:1032A00090F83D10212901D0022070478168B1F5C6
:1032B000805F01D1016961B1016A4A1C0262026842
:1032C00009785160C18C491E0904090CC1840AD0D7
:1032D00013E0016A02680988C1F308015160016ABC
:1032E000891C0162EEE70168CA6822F08002CA60A8
:1032F0000068C16841F04001C160002070472DE9BD
:10330000F0410446069D884617461E462068006820
:1033100038EA000020D00020B84227D1B5F1FF3FA5
:103320001CD025B1FEF728F9801BA84216D92068C9
:10333000C16821F4D071C1602068416921F00101A8
:103340004161202084F83D0084F83E00002084F88C
:103350003C000320BDE8F0810120DDE72068006823
:1033600038EA000005D00020B842D7D00020BDE8E0
:10337000F0810120F8E700000148FFF74BB9000099
:103380006C010020FEE700000FB4054B10B503A947
:10339000044A029800F0DAF810BC5DF814FB000053
:1033A000793C00081C00002002E008C8121F08C178
:1033B000002AFAD170477047002001E001C1121FB6
:1033C000002AFBD1704700002DE9FF5F82B0002189
:1033D000DDE90430020DDDF840B0034318D044F6B7
:1033E0001050A2F2FF3242431514119801281FD049
:1033F000A5EB0B00401C5FEA000A4FF000064E4FA1
:10340000DFF83891B046504615D5CAF1000413E0F4
:10341000119801244AA3012801D16FEA0B010298F7
:10342000119AC0E90031C0E9024206B0BDE8F09F40
:10343000CBF10000DFE704460021404A491842EB87
:103440000450CDE9001012E0E00707D032463B46B9
:1034500040464946FDF768F98046894632463B4674
:1034600010461946FDF760F906460F466410002C19
:10347000EAD1DDE90401DDE90023BAF1000F06DA43
:10348000FDF752F942464B46FDF74EF905E0FDF7D0
:10349000BDF942464B46FDF7B9F904460E460022F7
:1034A000284BFDF73BFA03D84FF0FF30014607E009
:1034B0000022254B20463146FCF76CFFFDF715FA3C
:1034C000102409E0002C0ADB0A220023FCF72CFE62
:1034D000039B30321A55641E50EA0102F2D1641C7B
:1034E000039AC4F111031444119A012A03D0012252
:1034F00008430DD10AE0084304D000204FF0110B1F
:10350000119072E7A3EB0B056D1E0DE05B4504DD2A
:103510004FF0000205F1010504E003DA4FF000026C
:10352000A5F10105002AECD002981199C0E90231F9
:10353000C0E9004579E70000000014400000F03FBA
:10354000300000000000F0430000E03F2DE9FF4F95
:1035500095B09A46884606460025EEE1252877D1A3
:1035600000242746F94A0121039400E0044316F899
:10357000013F203B01FA03F01042F7D130782A28AE
:1035800011D06FF02F033078A0F13002092A16D83D
:10359000039A44F0020402EB820203EB420210445D
:1035A000761C0390EFE758F8042B0392002A03DA05
:1035B000504244F40054039044F00204761C3078E6
:1035C0002E2816D116F8010F44F004042A280DD035
:1035D0006FF02F023078A0F13003092B09D807EBE8
:1035E000870302EB4303C718761CF3E758F8047B04
:1035F000761C30786C280FD006DC4C2817D0682851
:103600000DD06A2814D104E0742810D07A280FD184
:103610000DE044F400140AE044F4801401E044F4A2
:1036200040147278824202D104F58014761C761C14
:10363000307866280BD013DC582877D009DC0028B6
:1036400075D04528F6D04628F4D047281AD193E102
:1036500018E0632835D0642879D0652812D18BE131
:10366000702873D008DC6728F1D069286FD06E28E5
:103670000DD06F2806D1ACE073282CD0752874D0FB
:10368000782853D05246179990476D1C54E1C4F3E3
:103690000250022809D003280DD0D8F800100428C1
:1036A0000DD00D6008F1040846E1D8F80010EA17C3
:1036B000C1E90052F6E7D8F800100D80F2E70D706E
:1036C000F0E718F8041B8DF8001000208DF80100B9
:1036D000EB46012003E058F804BB4FF0FF306107D0
:1036E0004FF0000102D40DE009F101018946B94211
:1036F0000FDA8145F8DB1BF809100029F4D108E046
:1037000009F1010189468142FADB1BF80910002901
:10371000F6D103985346A0EB090721463846179A7D
:1037200000F080FA284400EB090507E044E008E1D6
:103730000DE01BF8010B524617999047B9F10109AA
:10374000F7D2534621463846179AF2E039E00A216B
:10375000C4F302524FF0000B0091022A06D058F831
:10376000040BC117032A09D00AE023E008F107007F
:1037700020F00702F2E80201904605E000B2C1170E
:10378000042A01D140B2C117002906DA0A460021F5
:10379000404261EB02012D2202E0220504D52B22DA
:1037A0008DF80420012203E0E20701D02022F7E790
:1037B000914657E00A2100E010214FF0000B0091E4
:1037C0000BE010214FF0000B44F004040827009197
:1037D00003E008204FF0000B0090C4F30252022ACD
:1037E00005D058F8040B0021032A08D008E008F19E
:1037F000070020F00702F2E80201904603E080B2E1
:10380000042A00D1C0B24FF0000922072AD532782D
:10381000702A07D0DDF800C08CF0100C5CEA0B0CAD
:1038200005D00EE040228DF80420012208E050EA85
:10383000010306D030238DF804308DF805200222D4
:103840009146009B83F0080353EA0B030AD150EA28
:10385000010201D1620705D530228DF804204FF016
:1038600001097F1E3278582A04D039A20C920CAA82
:1038700002920BE03BA2F9E75B46009AFCF754FC8E
:103880000C9B9B5C029A521E0292137050EA01023A
:10389000F2D1029804A9081A00F1200B600702D5A2
:1038A00024F4803400E001275F4502DDA7EB0B0024
:1038B00000E0002000EB0B01009003984944401AFF
:1038C0000390E00306D453462146179A039800F06C
:1038D000A9F90544002706E001A85246C05D1799E2
:1038E00090476D1C7F1C4F45F6DBE0030CD553461B
:1038F0002146179A039800F095F9054404E030201A
:103900005246179990476D1C0099481E0090002957
:10391000F5DC08E00298029952460078491C0291B1
:10392000179990476D1CBBF10001ABF1010BF1DC65
:103930005BE100F065F90544761C307800287FF4DF
:103940000DAE19B02846BDE8F08F0000092801002F
:103950003031323334353637383961626364656605
:1039600000000000303132333435363738394142C7
:103970004344454600000000600700D4062708F1D4
:10398000070020F00700F0E80223804603F0004C17
:103990005FEA0C0001D097A009E0200501D596A0B0
:1039A00005E0E00701D095A001E0AFF24C001390D4
:1039B000307823F0004365280CD006DC452809D078
:1039C00046281DD047287FD13BE0662818D06728BD
:1039D0007AD136E00021112F01DB112000E0781CA4
:1039E000CDE9000104A90CA8FFF7EEFCDDE90D010B
:1039F0000C9A4FF0000B07F10109109200914EE074
:103A00004FF000400097CDE9011004A90CA8FFF782
:103A1000DBFCDDE90D020C9B0F994FF0000B91468A
:103A20001093009211B9791C00EB0109B7EB090062
:103A300003D4C0F1FF3B07F10109A9EB0700019096
:103A400042E0012F00DA01270021112F01DD1120B2
:103A500000E03846CDE9000104A90CA8FFF7B4FC4A
:103A6000DDE90D010C9A00914FF0000BB946109260
:103A700021070FD4009A4A4503DA914601E0A9F1E3
:103A80000109B9F1010F05DD109AA9F10101515C9D
:103A90003029F4D0B84202DA10F1040F03DA012120
:103AA000CDE9011010E0002803DC8344A9EB0001FC
:103AB00002E0411C494500DD8946A0EB0B00401C9B
:103AC00001904FF000400290200705D4019848452E
:103AD00002DB4FF0FF30019000208DF84B00029880
:103AE0000DF14B07B0F1004F25D002200C902B2098
:103AF0000D90029800280CDA404202902D200D9083
:103B000007E00A210298FCF744FD3031029007F8E3
:103B1000011D0C99481E0C900029F2DC0298002827
:103B2000EFD1791E0D980870307800F0200040F039
:103B3000450007F8020D11A8C01BC01D0290139884
:103B4000007800B1012000EB0901019801EBE07160
:103B5000029801440398401A401E0390E00306D4E3
:103B600053462146179A039800F05CF805441398D1
:103B7000007818B15246179990476D1CE00323D581
:103B800053462146179A039800F04CF805441BE071
:103B9000BBF1000F07DB0098584504DD109817991A
:103BA00010F80B0001E01799302052469047019819
:103BB0000BF1010B401E05F10105019004D12E20EF
:103BC0005246179990476D1CB9F10001A9F10109FE
:103BD000DEDC05E017F8010B5246179990476D1C83
:103BE0000299481E02900029F4DC53462146179A98
:103BF00003989EE62D0000002B000000200000002E
:103C00002DE9F041044600251E461746880404D4D9
:103C100005E039462020B0476D1C641EF9D52846C2
:103C2000BDE8F0812DE9F041044600251E4690468E
:103C3000C80301D5302700E02027880404D505E01B
:103C400041463846B0476D1C641EF9D52846BDE88C
:103C5000F0810000074808B500680168C94389067B
:103C6000FBD44FF6FF73012269460248FEF74CFE73
:103C7000009808BD6C01002013B54FF6FF730122B8
:103C800069460248FEF7ABFE00981CBD6C0100209F
:103C900070B5044605460948FFF7DCFF411C04D017
:103CA0000A2806D004F8010BF5E7AC4201D1002048
:103CB00070BD00202070284670BD00001800002054
:103CC000ADF57B6DFDF766FCFFF77FF8FEF752FF61
:103CD000FEF73AFFFEF706FFFEF78CFFFEF7BEFF8A
:103CE000FEF7F0FFFFF73CF80020009001900290F3
:103CF00002E06846FFF7CCFF9DF800000028F8D0EE
:103D0000072250A16846FCF762FA0028ECD14DA0CA
:103D1000FFF73AFB00F0A0F810B905E0FEF7C6FE89
:103D200000F09AF80028F9D1FEF7C0FE00F0D8F8AC
:103D3000FCF7EEFB00F0BAF84FF0FA0B434C20888A
:103D4000012801D00328F9D10020CDF8A00FCDF82B
:103D5000A40FCDF8A80FCDF8AC0F4FF4FA62694666
:103D60003B48FDF755F83B48FEF765F93749EA4609
:103D70000DF57A68A1F802B00DF6A87900250024A7
:103D800061193AF81100FCF7C8FB6FF00B02FCF761
:103D9000A8FB06460F4658F82400FCF7CBFB32463A
:103DA0003B46FCF7F7FAFCF7D8FB48F824004E46F0
:103DB00059F824004FF07E51FCF718FA46F8240019
:103DC000641CE4B2012CDBD9AD1CADB2B5F5FA6FC1
:103DD000D5D3BBF1000FD1D1DDF8A81FDDF8A00FBE
:103DE000FCF78EFA0C21FCF7C9FA0646DDF8AC1F89
:103DF000DDF8A40FFCF784FA0C21FCF7BFFA0546A6
:103E00001448FEF757F91248FDF79AF80F4C20882E
:103E1000FCF77EFB4FF07E51FCF73AFA0746A0888C
:103E2000FCF776FB3946FCF739FA00F03FF83046EC
:103E300000F03CF8284600F039F800202080A4F873
:103E400002B07BE77368656C6C6F65000000002052
:103E500020000020940000203EB510A0FFF794FA47
:103E60000020009001906C4602900CA0FFF78CFAA5
:103E70006846FFF70DFF01220AA16846FCF7A7F983
:103E80000028F2D1012208A1A01CFCF7A0F900280B
:103E9000EBD19DF801003038C0B23EBD737465733C
:103EA00074650000737865006500000010B5044675
:103EB00007A0FFF769FA2046FCF73CFB02460B46D9
:103EC00004A0FFF761FABDE8104004A0FFF75CBA58
:103ED000730000002530332E3166000065000000BD
:103EE0002DE9F04F0026ADF6A47D4FF4FA69344673
:103EF00035464A4669462B48FCF78AFF2A48FEF7B2
:103F00009AF80120FDF7FAF90027DFF8A0A0BB46D8
:103F100008212748FEF7D4FA254A1168C1F83CB0B9
:103F2000BAF802C01FE000200146E84601E0014661
:103F300009E0431838F813309E19641C45F1000558
:103F4000891C89B24B469942F3D3401CC0B2012868
:103F5000EDD91068C16B4FF47A73491CB1FBF3F8CB
:103F600003FB1811C163BCF1000FDCD1082110481C
:103F7000FEF7F8FA7F1CFFB2052FC9D30A48FEF7F7
:103F800099F80848FCF7DCFFFA21AAF80210B0B251
:103F900022462B460021FCF7C7F80DF6A47D80B21F
:103FA000BDE8F08F200000209400002000000020D9
:103FB00024010020000000000000000001020304B2
:103FC000060708090000000001020304EC3F000896
:103FD0000000002020000000A83300080C4000086A
:103FE0002000002090050000B8330008000050C3F6
:103FF000000000000024F400010000001000000098
:0C400000000000000000000000000000B4
:04000005080000ED02
:00000001FF
