:020000040800F2
:100000002005002005010008F32200083D2100081A
:10001000F1220008390800086126000800000000ED
:10002000000000000000000000000000F7220008AF
:100030007308000800000000F5220008F9220008FB
:100040001F0100081F0100081F0100081F01000810
:100050001F0100081F0100081F0100081F01000800
:100060001F0100081F0100081F0100083D080008CB
:100070001F0100081F0100081F0100081F010008E0
:100080001F0100081F0100081F0100081F010008D0
:100090001F0100081F0100081F0100081F010008C0
:1000A0001F010008612300081F0100081F0100084C
:1000B0001F0100081F010008000000001F010008C8
:1000C0001F01000800000000000000001F010008E0
:1000D00000000000552600081F0100080000000075
:1000E000750800081F0100081F010008DFF810D084
:1000F00000F06CFA00480047BD2F0008AFF3008005
:10010000200500200648804706480047FEE7FEE736
:10011000FEE7FEE7FEE7FEE7FEE7FEE7FEE7FEE7B7
:100120005D230008ED0000082DE9F05F0546002082
:1001300092469B4688460646814640241BE0284658
:1001400041464746224600F020F853465A46C01A18
:10015000914110D311461846224600F070F82D1A2E
:1001600067EB01084F4622460120002100F067F8A6
:1001700017EB00094E41201EA4F10104DFDC4846C4
:1001800031462A464346BDE8F09F202A04DB203A48
:1001900021FA02F00021704721FA02F3D040C2F1A7
:1001A00020029140084319467047D2B201E000F89E
:1001B000012B491EFBD270470022F6E710B513460B
:1001C0000A4604461946FFF7F0FF204610BD30B539
:1001D00005460020034600E05B1C934205D2EC5C20
:1001E000C85C201A01D1002CF6D130BD00F00042CD
:1001F00030F000400AD0C10D01F56071C0F3160067
:1002000042EA0151C20840071143704700200146ED
:10021000704730B50B46014600202022012409E03A
:1002200021FA02F59D4205D303FA02F5491B04FAAF
:1002300002F52844151EA2F10102F1DC30BD202A8E
:1002400004DB203A00FA02F1002070479140C2F12D
:10025000200320FA03F31943904070472DE9FE4F25
:10026000804681EA0300C00F0C46009021F0004157
:1002700023F00045B8EB0200A94105D240462146D3
:1002800090461C460B46024623F00040104347D0E0
:10029000270DC7F30A00C3F30A510290401A0190D8
:1002A00040286BDAC3F3130040F4801B0098924699
:1002B00020B10023D2EB030A63EB0B0B01985946E4
:1002C000C0F140025046FFF7BAFF06460D465046C1
:1002D0005946019A00F08CF910EB080061410024A6
:1002E00087EA115284EAE7731A4340D0009A62B356
:1002F000019A012A4FEA075215DC001B61EB02014B
:100300004FF0004202EA0752CDE90042001C41F5DD
:10031000801132462B4600F08CF903B0BDE8F08F17
:1003200040462146F9E7001B61EB0201001C41F544
:10033000801300185B412018A2F5001747EB03015A
:1003400040EAD570B6196D4111E06D084FEA3606E6
:1003500045EAC0754FEA0752001B61EB0201001C21
:1003600041F5801149084FEA3000001951413246E9
:100370002B4603B0BDE8F04F00F04CB900980122C5
:1003800040000023D0EB020263EBE07300982146AB
:100390004FEAE074B8EB000061EB0401E9E783F099
:1003A00000435BE781F0004158E72DE9FE4F81EA09
:1003B000030404F0004421F0004100944FF0000BCE
:1003C00023F0004350EA01045ED052EA03045BD0FC
:1003D000C3F30A54C1F30A552C44A4F2F334019434
:1003E000A0FB0254C1F3130141F48011C3F31303C2
:1003F00043F4801301FB024400FB034E840A970A76
:1004000044EA815447EA8357A4FB076802958D0AA2
:1004100005FB07854FEA932C04FB0C542705029D2E
:100420004FEA065847EA1637B5EB08056EEB070C9E
:10043000870E920E47EA811742EA8312A7FB020158
:10044000B6EB0B0164EB00042B0D43EA0C335E1892
:1004500044EB1C50DA465146E7FB0201C5F3130496
:100460004FEA0B3343EA14534FEA0432019C43EA48
:100470000603A4F10C040294009CCDE900B400F042
:10048000D8F803B0BDE8F08F00200146F9E72DE968
:10049000F04D81EA030404F0004B21F000451446BE
:1004A0004FF0000A23F0004150EA050220D054EA40
:1004B00001021DD0C5F30A570246C5F31303C1F369
:1004C0001300C1F30A5640F4801543F48013A7EBE0
:1004D0000608101BD64608F2FD3873EB050002D360
:1004E00008F1010801E092185B41B8F1000F03DA4E
:1004F00000200146BDE8F08D00204FF48011064633
:1005000084460EE0171B73EB050705D3121B63EB44
:10051000050306434CEA010C49084FEA30009218E3
:100520005B4150EA0107EDD152EA030012D082EAA2
:10053000040083EA0501084305D0101BAB4106D235
:100540000122002306E000224FF0004302E06FF09A
:10055000010253101AEB06004CEB085110EB0A0095
:1005600041EB0B01BDE8F04D00F054B8C1F30A5265
:10057000C1F3130140F2FF3341F480119A4202DAD1
:1005800000200146704740F233439A42A2F23342C0
:1005900002DC5242FFF7F9BDFFF751BE30B5041E31
:1005A00071F1000404DB4FF00044404264EB0101B0
:1005B000141E73F1000405DB1C464FF00043524249
:1005C00063EB0403994208BF904230BD064C074DCF
:1005D00006E0E06840F0010394E807009847103413
:1005E000AC42F6D3FFF786FDA4310008C431000801
:1005F000202A06DBCB17203A41FA02F043EAE073E7
:1006000006E041FA02F3D040C2F1200291400843D3
:100610001946704710B5141E73F1000408DA401C27
:1006200041F1000192185B411A4301D120F0010011
:1006300010BD2DE9F04D92469B4611B1B1FA81F201
:1006400002E0B0FA80F220329046FFF7F8FD04464F
:100650000F4640EA0A0041EA0B0153465A46084356
:1006600013D0114653EA010019D0C8F14002504698
:10067000FFF78BFD05460E46504659464246FFF7AA
:10068000DEFD084305D0012004E020463946BDE8E0
:10069000F08D0020054346EAE0762C4337430A9864
:1006A0006305E40AA0EB08000022FD0A44EA47546F
:1006B0000A3002D500200146E9E701051019694119
:1006C000DDE9084500196941BDE8F04DA2E70000E9
:1006D00078B110F0004148BF4042B0FA80F3C3F156
:1006E000860200FA03F04FEA102062F3DE5041EA7E
:1006F0000000704770B5044600688168C943C907A7
:1007000017D1816821F00101816000F053FD054699
:100710000AE000BF00F04EFD401B022804D920680B
:100720008068C043C00706D020688068C043C00707
:10073000F0D0002070BDA06A40F01000A062E06A16
:1007400040F00100E062012070BD10B50146406A32
:10075000826A12F0500F05D0006A026BBDE81040AB
:1007600008461047816A41F4007181620168896816
:10077000C1F3424107290CD1017B51B9816A21F4AF
:1007800080718162816AC90403D4816A41F00101E8
:10079000816200F0F9F810BD10B5406A816A41F03D
:1007A00040018162C16A41F00401C16200F0EEF8CB
:1007B00010BD10B5406A00F0E8F810BDF8B500268D
:1007C0000446009600688168C943C9072DD0816836
:1007D00041F001018160164816490068B0FBF1F054
:1007E00000E0401E00900028FBD100F0E3FC05462D
:1007F00016E000BF00F0DEFC401B022810D9206884
:100800008068C043C0070BD0A06A40F01000A0620F
:10081000E06A40F00100E06284F824600120F8BD45
:1008200020688068C043C007E4D10020F8BD000004
:100830001000002040420F00FEE70000014800F0D9
:100840009DBA00004C00002030B590F840500124C3
:10085000AC40C56B6C60046863604368102B036830
:1008600003D099600068C26030BD9A600068C160C2
:1008700030BD704710B54FF4806000F0AFFBBDE8AD
:1008800010404FF4004000F0A9BB7047F8B50024B9
:10089000009490F824202546012A12D0012280F8E5
:1008A00024204A681F23072A0DD20668776B521E40
:1008B00002EB820293409F430B6893401F43776390
:1008C00019E00220F8BD06680D2A0AD2376BD21F44
:1008D00002EB820293409F430B6893401F433763B0
:1008E00009E0F76A0D3A02EB820293409F430B68DE
:1008F00093401F43F7620A68072306680A2A0AD34F
:10090000F7680A3A02EB420293409F438B68934098
:100910001F43F76008E0376902EB420293409F43B0
:100920008B6893401F4337610A68102A01D0112A4F
:1009300020D1124B02689A4217D193681B0219D436
:10094000936843F4000393600968102912D10C499D
:100950000C4A0968B1FBF2F101EB8101490000E0AA
:10096000491E00910029FBD104E0816A41F0200179
:100970008162012480F824502046F8BD0024014003
:100980001000002040420F00704770477047000081
:100990002DE9F0414FF0000704003D467ED0A06AEB
:1009A000002628B9E66284F82460204600F07EF82C
:1009B0002046FFF79FFEA16AC90600D420B1A06AB5
:1009C00040F01000A06269E0A16A21F4885141F072
:1009D0000201A1626268E169237B0A4347EA43019D
:1009E0000A43A1684FF48077B94209D0012907D0A2
:1009F0005FF0000194F814C0BCF1010F02D00AE0CE
:100A00003946F7E7F3B1A36A43F02003A362E36A30
:100A100043F00103E3622368D3F804C02CF4694C6B
:100A20004CEA010CC3F804C021688B68DFF870C081
:100A300003EA0C0313438B60A168B9420BD0012970
:100A400009D00CE0DFF85CC0A3690CEB43330B4327
:100A500043F40061DFE7218A0D05A5F580152168C3
:100A6000CB6A23F470032B43CB62216889680E4B59
:100A70001940914208D1E662A16A21F0020141F0D9
:100A80000101A162BDE8F081A06A20F0020040F0FF
:100A90001000A062E06A40F00100E0620120F1E78E
:100AA000FDF7E1FF00E0FFFFFE0E1FFF70B586B00F
:100AB00000260546009601960296039600681A499C
:100AC00088422FD11949886940F40070886188698B
:100AD00000F400700490886940F00400886188691F
:100AE000694600F004000490062000900320019065
:100AF0000F4800F07FFA104C0E48C4E90006802031
:100B0000C4E9026040002061800060612020A06193
:100B1000C001E061204600F0DBF908B1FFF7B5FE47
:100B20002C62656206B070BD0024014000100240D6
:100B300000080140080002404C0000202DE9F04769
:100B4000894604463B4900683B4F0E1D904688424B
:100B500001D0B84207D1306810F4702F03D00125BE
:100B60002846BDE8F08794F8240001280CD0012025
:100B700084F824002046FFF721FE05004FF0000016
:100B800004D084F82400EBE70220EAE7A16A40F6EB
:100B90000162914341F48071A1622168B94218D188
:100BA000326812F4702F14D0A16A41F48011A1624E
:100BB0003168490505D5A16A21F4005141F48051FD
:100BC000A162A16AC9040AD5E16A21F00601E162C5
:100BD00006E0A26A22F48012A2624968E9E7E062B4
:100BE00084F82400216A15488862216A1448C86282
:100BF000216A1448086321686FF0020008602068C9
:100C0000816841F480718160216843464A464C31D5
:100C1000206A00F08BF920688168C1F342410729FE
:100C2000816803D041F48011816099E741F4A0010B
:100C3000FAE7000000240140002801404B070008AB
:100C4000B30700089907000810B5044690F824007F
:100C5000012807D0012084F824002046FFF74AFD30
:100C600010B113E0022010BD21688A6822F480725E
:100C70008A60216A91F82120022A07D1084600F0F3
:100C80000EF8A16A30B141F04001A162002184F860
:100C9000241010BD21F4885141F00101F5E710B591
:100CA00090F821100022022905D00421816380F8E8
:100CB0002020012010BD01680B6823F00E030B609B
:100CC00001680B6823F001030B6090F84030C46B9F
:100CD000012101FA03F3636080F8211080F82020DD
:100CE000104610BD10B590F821100024022903D041
:100CF0000421816301243DE001680A6822F00E02AC
:100D00000A6001680A6822F001020A601A4A016852
:100D1000914201D1012121E0174A1432914201D1BF
:100D200010211BE0144A2832914201D1891515E0A7
:100D3000114A3C32914201D189140FE00E4A5032DF
:100D4000914202D14FF4803108E00B4A6432914263
:100D500002D14FF4801101E04FF08071064A083A49
:100D60005160012180F82110002180F82010416B92
:100D700001B18847204610BD080002402DE9F05F10
:100D8000C16B0C6801680B68D0F840C0042202FAFD
:100D90000CF2494DDFF824A1494E4A4FDFF828B143
:100DA000DFF828E122422CD05A072AD50A68920699
:100DB00003D40A6822F004020A600168A94201D142
:100DC000042219E0514501D1402215E0B14202D17F
:100DD0004FF4806210E0B94202D14FF480420BE040
:100DE000594502D14FF4802206E0714502D14FF4FB
:100DF000800201E04FF080622F4908394A60C16AE1
:100E00003BE04FF0020808FA0CF818EA040F4FF024
:100E100000094FF0010235D05FEA837832D50B68C4
:100E20009B0605D40B6823F00A030B6080F8212091
:100E30000168A94201D1022219E0514501D12022C5
:100E400015E0B14202D14FF4007210E0B94202D174
:100E50004FF400520BE0594502D14FF4003206E046
:100E6000714502D14FF4001201E04FF000721249B7
:100E700008394A6080F82090816A00291AD0BDE8BC
:100E8000F05F0847082505FA0CF5254212D01B072C
:100E900010D50B6823F00E030B6090F84010C36B65
:100EA00002FA01F15960826380F8212080F82090D5
:100EB000016BE2E7BDE8F09F080002401C00024021
:100EC0003000024044000240580002406C000240E2
:100ED00030B528B308C8134914221944B1FBF2F104
:100EE0008900C16310498163022141771A6843F682
:100EF000F0718A43D0E900142143D0E902452C4324
:100F000021430469214344692143846921431143F6
:100F1000196000214163012242770177084630BD04
:100F2000012030BDF8FFFDBF0000024070B504464F
:100F300090F82000002501280CD0012084F8200022
:100F400094F821600020012E06D084F820000225AC
:100F5000284670BD022070BD022684F82160A0637F
:100F60002068066826F0010606602046FFF76CFC44
:100F7000E06A00282068016802D041F00E0106E016
:100F800021F0040101602068016841F00A0101605C
:100F90002068016841F001010160D9E770B504469D
:100FA00000F008F90546601C02D0044800780444AB
:100FB00000F000F9401BA042FAD370BD04000020ED
:100FC00005490A8832B1101AC21700EB925002226A
:100FD00002EBA0200880704700000020044910B5F3
:100FE0000A68024202D00860FFF7EAFF10BD000065
:100FF000140401402DE9F84FDFF89C91002409F119
:10100000040A0AF1040B23460F270BF1040EBBE080
:101010000125A5402A40AA4276D1DFF880C14E685A
:10102000A6EB0C0866452BD00DDC032E34D005DC76
:1010300036B3012E19D0022E2FD11BE0112E16D05F
:10104000122E2AD119E0B8F5881F19D006DCB8F5A0
:10105000803F15D0B8F5801F1FD111E0B8F5001FF3
:101060000ED0B8F5041F18D10AE0CB6815E0CB68A4
:101070001B1D12E0CB6808330FE0CB680C330CE08B
:101080008B682BB1012B4FF0080303D0456104E0BE
:10109000042302E0056100E00023FF2A01D8064690
:1010A00001E000F104064FEA840501D9A5F120050D
:1010B000D6F8008007FA05FC28EA0C0803FA05F5C3
:1010C00048EA0508C6F800804D68ED005BD5344D50
:1010D000AE6946F00106AE61AD6924F0030605F085
:1010E000010500952F4D06EB050CDCF80850A6070E
:1010F000360F07FA06F825EA0805DFF8AC80404508
:1011000003D14FF0000810E03DE0DFF8A08040453B
:1011100002D14FF0010808E0DFF89480404502D189
:101120004FF0020801E04FF0030808FA06F848EA19
:101130000508CCF808804D68D9F80060ED034D46ED
:1011400001D5164300E096432E604D68DAF8006042
:10115000AD03554601D5164300E096432E604D6819
:10116000DBF80060ED025D4601D5164300E09643D2
:101170002E604D68DEF80060AD02754601D516435D
:1011800000E096432E60641C0A6832FA04F57FF48E
:101190003FAFBDE8F88F00000004014000001110CF
:1011A000001002400000014000080140000C014016
:1011B00000100140014880687047000004000020D2
:1011C0000248816802781144816070470400002061
:1011D000074810B5016841F010010160032000F0DC
:1011E00075F8002000F006F800F024F8002010BD8B
:1011F0000020024070B50D4D04464FF47A712878F6
:10120000B1FBF0F00A490968B1FBF0F000F062FBB5
:1012100048B9102C07D200222146501E00F036F8A3
:1012200000206C6070BD012070BD00000400002033
:10123000100000200C4808B5816941F0010181616E
:10124000816901F001010091C16941F08051C161E2
:10125000C06900F0805000900448416821F0E061CE
:1012600041F00071416008BD0010024000000140E3
:10127000002809DB00F01F02012191404009800095
:1012800000F1E020C0F8001170470000F0B40E4BF0
:101290001B680C46C3F30223C3F10705042D00D9D4
:1012A0000425191D072901D2002300E0DB1E0126B9
:1012B00006FA05F1491E214099409E40761E1640CF
:1012C0003143F0BC01F0DEB90CED00E0064900F05E
:1012D000070208684FF6FF03184040EA0220034A5D
:1012E00010430860704700000CED00E00000FA05B4
:1012F0002DE9F84305460078354CC00754D0E06925
:101300000026C00008D4E06940F08050E061E06948
:10131000012600F0805000902E480168C90512D4C3
:101320000168804641F480710160FFF743FF074682
:1013300005E000BFFFF73EFFC01B642823D8D8F8A4
:101340000000C005F6D5206A10F4407021D0A988AD
:1013500001F4407181421CD0206A1F49012220F40F
:1013600040700A6000220A602062C00711D0FFF7B7
:1013700021FF074641F2883808E000BFFFF71AFF57
:10138000C11B414502D90320BDE8F883206A8007CC
:10139000F4D5206A696820F44070084320621EB1C9
:1013A000E06920F08050E0612878800705D560680A
:1013B000A96820F44040084360602878C00605D53D
:1013C0006068E96820F48000084360600020DBE783
:1013D0000010024000700040400442422DE9F047F6
:1013E0000F46050061D0434E306800F00700B84258
:1013F00009D2306820F0070038433060306800F0D0
:101400000700B84251D128683B4C810712D54007EC
:1014100003D5606840F4E06060602878000703D579
:10142000606840F4605060606068A96820F0F00077
:10143000084360602878C00728D06868012810D069
:101440002168022810D0890700292EDA616821F06E
:10145000030101436160FFF7ADFE804641F2883928
:101460000DE021688903EFE78901EDE7FFF7A2FEB0
:10147000A0EB0801494502D90320BDE8F087606868
:10148000696800F00C00B0EB810FEFD1306800F01C
:101490000700B8420BD9306820F0070038433060AD
:1014A000306800F00700B84201D00120E5E7287855
:1014B000400705D56068E96820F4E0600843606093
:1014C0002878000706D56068296920F4605040EA52
:1014D000C100606000F038F86168084AC1F3031188
:1014E000515CC8400649086006480068FFF782FE64
:1014F0000020C2E700200240001002408C310008AA
:1015000010000020080000200448054900684968D0
:10151000044AC1F30221515CC8407047100000200A
:10152000001002409C3100080448054900684968E1
:10153000044AC1F3C221515CC8407047100000202A
:10154000001002409C31000812A185B00FC98DE83F
:101550000F0014A0144A006804905168134801F069
:101560000C03042B10D0082B0ED1C1F38343C90305
:101570001DF803000AD5516804AAC1F34041515C2B
:101580000A4A5043B0FBF1F005B0704708494843A0
:10159000FAE7000002030405060708090A0B0C0D10
:1015A0000E0F1010010200000010024000127A001D
:1015B00000093D002DE9F84F040070D02078C04D9F
:1015C000C00749D06868C0F38100012807D0686867
:1015D000C0F38100022809D16868C00306D52868D5
:1015E000800339D560680028E7D035E06068B0F541
:1015F000803F0BD010B1B0F5A02F11D0286820F497
:1016000080302860286820F4802002E0286840F4B8
:1016100080302860606890B1FFF7CCFD06460AE094
:10162000286840F480202860F0E700BFFFF7C2FD83
:10163000801B642873D828688003F7D50CE0FFF777
:10164000B9FD064605E000BFFFF7B4FD801B642826
:10165000F0D828688003F7D420789A4E80074FF09E
:1016600001094FF0000839D5686810F00C0F07D059
:101670006868C0F38100022809D16868C00306D4F5
:101680002868800714D52069012808D110E0206956
:10169000B0B1C6F80090FFF78DFD074605E00AE1FE
:1016A000FFF788FDC01B0228C4D828688007F7D53B
:1016B0002868616920F0F80040EAC10028600DE068
:1016C000C6F80080FFF776FD074604E0FFF772FDDD
:1016D000C01B022823D828688007F7D42078000789
:1016E0002CD57948A169D9B1C0F80090FFF762FD07
:1016F000074604E0FFF75EFDC01B02280FD8686AAA
:101700008007F7D571484FF4FA510068B0FBF1F04B
:10171000009000BF0098411E0091FAD20EE080E0D8
:10172000C0F80080FFF746FD074604E0FFF742FDE2
:10173000C01B022875D8686A8007F7D42078400754
:1017400060D5E8690027C00008D4E86940F08050FF
:10175000E861E869012700F0805000905C4801686A
:10176000C90513D40168834641F480710160FFF715
:1017700021FD824606E000BFFFF71CFDA0EB0A003A
:1017800064284ED8DBF80000C005F5D5E0680128D4
:101790000AD008B1052813D0286A20F00100286279
:1017A000286A20F0040002E0286A40F00100286264
:1017B000E06841F2883B98B1FFF7FCFC82460BE001
:1017C000286A40F004002862EEE700BFFFF7F2FC51
:1017D000A0EB0A0159455AD8286A8007F6D50CE0D3
:1017E000FFF7E8FC824605E0FFF7E4FCA0EB0A0106
:1017F00059454CD8286A8007F6D41FB1E86920F013
:101800008050E861E06988B36968C1F38101022909
:1018100044D00228C6F8608004D0FFF7CBFC044611
:1018200038E034E0FFF7C6FC074604E0FFF7C2FCEF
:10183000C01B02282BD828688001F7D4206AB0F595
:10184000803F05D16868A16820F4003008436860D3
:10185000D4E908010843696821F4741108436860F9
:10186000C6F86090FFF7A6FC044606E025E000BF3E
:10187000FFF7A0FC001B022809D828688001F7D5D3
:101880001BE000BFFFF796FC001B022802D90320D3
:10189000BDE8F88F28688001F4D40EE00128F7D065
:1018A0006868226A00F48031914204D1616A00F4D0
:1018B0007010884201D00120EAE70020E8E700002C
:1018C000001002400000424280044242100000200A
:1018D0000070004010B5401EB0F1807F01D30120A0
:1018E00010BD4FF0E02460610F21601700F0CAFEC8
:1018F0000020A06107202061002010BD70477047C4
:1019000070B590F83C20012A23D0012480F83C4097
:10191000022280F83D2003685A689D6822F0700614
:101920000A6832435A600C4B02689A4205D0B2F101
:10193000804F02D0094B9A4204D1496825F08003B8
:101940001943916080F83D40002180F83C10084622
:1019500070BD022070BD0000002C0140000400405A
:1019600010B5040003D094F83D0010B107E0012049
:1019700010BD002084F83C00204600F01FF8022033
:1019800084F83D00211D206800F0F8FC012084F857
:10199000460084F83E0084F83F0084F8400084F854
:1019A000410084F8420084F8430084F8440084F83D
:1019B000450084F83D00002010BD000008B5006817
:1019C0000B49884212D10B48816941F40061816161
:1019D0008069002200F40060009011461920FFF792
:1019E00055FCBDE808401920FFF742BC08BD0000C7
:1019F000002C01400010024090F83D10012901D058
:101A000001207047022180F83D100168CA6842F049
:101A10000102CA6000680A49884205D0B0F1804FCF
:101A200002D00849884204D1816801F007010629E3
:101A300003D0016841F001010160002070470000FF
:101A4000002C0140000400400168CA6822F0010235
:101A5000CA6001680A6A41F211131A4207D10A6A80
:101A60009B101A4203D10A6822F001020A60012188
:101A700080F83D100020704770B5044690F83C0097
:101A8000012817D0012584F83C50022084F83D003D
:101A90002068826822F0770222F47F428260086820
:101AA000502830D00DDC20284DD005DC98B310280C
:101AB0003BD148E0022070BD302844D0402834D1CA
:101AC00039E0602828D0702806D0B0F5805F2CD08F
:101AD000B0F5005F29D10AE0CB68D1E90121206887
:101AE00000F07AFC2068816841F0770109E0CB685A
:101AF000D1E90121206800F06FFC2068816841F481
:101B00008041816011E0CA684968206800F076FC75
:101B10005021206807E016E0CA684968206800F094
:101B20007EFC6021206800F061FC84F83D500020BC
:101B300084F83C0070BDCA684968206800F05EFC0B
:101B400040212068EFE7226801461046EBE7704726
:101B500070B50446006801694FF00005C943890764
:101B600015D4C168C943890711D4E91E0161012058
:101B70002077206880698007204602D0FFF7E7FFC2
:101B800004E000F098F8204600F096F825772068E9
:101B90000169C943490717D4C168C943490713D428
:101BA0006FF004010161022020772068806910F441
:101BB000407F204602D0FFF7CAFF04E000F07BF828
:101BC000204600F079F8257720680169C9430907A4
:101BD00016D4C168C943090712D46FF00801016126
:101BE000042020772068C0698007204602D0FFF7D4
:101BF000AEFF04E000F05FF8204600F05DF82577C6
:101C000020680169C943C90617D4C168C943C90618
:101C100013D46FF010010161082020772068C0699B
:101C200010F4407F204602D0FFF791FF04E000F05F
:101C300042F8204600F040F8257720680169C94342
:101C4000C90708D1C168C943C90704D1891E016108
:101C5000204600F032F820680169C943090609D41A
:101C6000C168C943090605D46FF0800101612046AF
:101C7000FFF744FE20680169C943490609D4C168D9
:101C8000C943490605D46FF040010161204600F0C8
:101C900015F820680169C94389060BD4C168C94396
:101CA000890607D46FF0200101612046BDE870402D
:101CB000FFF725BE70BD704770477047704770478B
:101CC00070470000F8B5026804461068D16853698F
:101CD00010F00F0F4FF0000553D003F0010601F490
:101CE000907737435FD0C20705D0CA0503D5226C71
:101CF00042F001022264420705D5DA0703D0226CC4
:101D000042F002022264820705D5DA0703D0226C72
:101D100042F004022264020707D501F02002324398
:101D200003D0226C42F008022264226C002A34D0D4
:101D3000800604D5880602D5204600F0A2FB206864
:101D40004069216CC0F38010090700D430B32046ED
:101D500000F07FFB2068416949061BD5416921F0ED
:101D600040014161A06BA8B158494163A06BFEF7E7
:101D7000B9FF002811D0A06B416B01B0BDE8F04065
:101D8000084783060FD58B060DD52046BDE8F840E1
:101D900000F077BB2046FFF793FFF8BD2046FFF722
:101DA0008FFF2564F8BD266B2023012E52D1C60675
:101DB00050D5CE064ED51068506800905069400648
:101DC0002AD5A16B086840680004000CEAD0A68DF3
:101DD0008642E7D9E0858869202818D0D06820F4A9
:101DE0008070D0602068416921F001014161206864
:101DF000416921F04001416184F83E30256320684B
:101E0000C16821F01001C160A06BFEF748FFA08DF2
:101E1000E18D401A81B219E0A08DE18D401A81B2A6
:101E2000E08D0028BED00029BCD0D06820F490708E
:101E3000D0602068426922F00102426184F83E309D
:101E400025632068C26822F01002C2602046FFF7B6
:101E500036FFF8BD05062BD50D0629D594F83D00B3
:101E60002128F6D1A068B0F5805F01D12069B0B11A
:101E7000206A411C2162216800784860E08C401E85
:101E80000004000CE084E4D12068C16821F08001E6
:101E9000C1602068C16841F04001C160F8BD206A9E
:101EA0000088C0F308005060206A801C2062E5E7CB
:101EB0004006F3D54806F1D5D168204621F040010F
:101EC000D16084F83D3000F038F9F8BD43240008B3
:101ED00070B5040004D094F83D00002510B106E070
:101EE000012070BD84F83C50204600F023F82420E7
:101EF00084F83D002068C16821F40051C16020468B
:101F000000F01AFB2068016921F49041016120680A
:101F1000416921F02A0141612068C16841F4005102
:101F2000C1602564202084F83D0084F83E00002034
:101F300070BD000030B585B0002400940194029477
:101F4000039400681B49884232D11B48816941F4DF
:101F500080418161816901F480410491816941F08E
:101F6000080181618069154D00F00800049040204F
:101F70000090022001900320039069462846FFF755
:101F800039F88020CDE90004694628460294FFF71D
:101F900031F80B48416841F0E06141F004014160D3
:101FA000002211462520FFF771F92520FFF760F97F
:101FB00005B030BD0038014000100240000C014067
:101FC000000001402DE9F84F044690F83E009A4683
:101FD00016460D46202853D1FDB1F6B194F83C00C9
:101FE00001284DD0012084F83C00002727642220DE
:101FF00084F83E002763FFF7DDF8A6858146E68575
:10200000A0684FF48058404501D1206940B12E4668
:102010005FF0000584F83C7027E00120BDE8F88FF0
:102020000026F7E74B46002220212046CDF800A0ED
:1020300000F0DEFA08B10320F0E726B1A0684045C1
:102040001BD038B108E020684068C0F3080025F8CC
:10205000020B07E0206980B12068406800F07F0033
:1020600006F8010BE08D401EE085E08D0028D9D1F7
:10207000202084F83E000020D0E720684068EFE789
:102080000220CBE7704700002DE9F843044690F8A2
:102090003D001F4616460D4620284CD1C5B1BEB1A5
:1020A00094F83C00012846D0012084F83C004FF011
:1020B0000008C4F84080212084F83D00FFF77AF83A
:1020C000A6848146E684A068B0F5805F03D004E072
:1020D0000120BDE8F883206928B12E465FF0000595
:1020E00084F83C800EE00026FAE78021204600F0CC
:1020F0007FFAA0B9AEB116F8010B21684860E08CF8
:10210000401EE084E08C4B464FF000020097002810
:10211000EBD14FF04001204600F06AFA30B10320C5
:10212000D7E735F8020BC0F30800E6E7202084F873
:102130003D000020CDE70220CBE77047FEE700001E
:10214000FEB50024164800940194144902940160DD
:1021500089158160012606730475022505614FF417
:1021600060214460C161FEF713FC08B1FEF78DFBEE
:102170000096CDE9016469460948FEF787FB08B17E
:10218000FEF783FB0095694605480195FEF77EFB47
:10219000002801D0FEF779FBFEBD000000240140BD
:1021A0001C000020094808B5416941F00101416166
:1021B0004069002200F00100009011460B20FFF75B
:1021C00065F8BDE808400B20FFF752B80010024048
:1021D00030B585B0002003901948816941F0200195
:1021E0008161816901F020010491816941F004015C
:1021F0008161816901F004010491816941F0080164
:10220000816180690F4C00F0080004904FF4004099
:1022100001258DE8310069460B48FEF7EBFEA80268
:102220008DE8310069460948FEF7E4FE00221146B8
:102230002820FFF72BF82820FFF71AF805B030BD4B
:102240000010024000001110000C01400008014085
:1022500010B586B0002417480094019402940394AA
:1022600004941349059401604721C0E90114132126
:10227000C0E9031444618461FFF772FB08B1FEF703
:1022800004FB4FF48050009069460A48FFF7F4FBC6
:1022900008B1FEF7FAFA2020CDE9040404A90548A4
:1022A000FFF72EFB002801D0FEF7EFFA06B010BDB5
:1022B000002C0140900000200C4810B50A49016034
:1022C0004FF4E1314160002181600C22C160C0E91E
:1022D00004128161C161FFF7FBFD002803D0BDE856
:1022E0001040FEF7D2BA10BD00380140D8000020DF
:1022F000FEE7704770477047FEF762BF30B593B096
:1023000028216846FDF758FF14210AA8FDF754FF5D
:10231000002401200F9410941194010412948DE86C
:10232000130004904FF4E010CDE908100225079542
:102330006846FFF73FF90F20CDE90A056802CDE9AD
:102340000C4002210AA80E94FFF748F8A803119048
:102350000F950FA8FEF7CCFF13B030BD70470000FB
:1023600010B50448FFF7F4FB03480178491E0170DB
:1023700010BD0000900000200200002070B502682F
:10238000134B144C4FF08046984203D0B04201D01A
:10239000A04203D122F070054A682A43984203D034
:1023A000B04201D0A04203D122F44074CA68224353
:1023B0004C6922F08002224302608A68C2620A6885
:1023C0008262984201D1096901630121416170BDB6
:1023D000002C01400004004010B5846842EA03224A
:1023E00024F47F440A432243826010BD826822F0B5
:1023F00070020A4342F007018160704710B5036A1A
:10240000046A24F001040462846924F0F00444EABC
:10241000021423F00A020A438461026210BD10B55F
:10242000036A23F0100303628369046A23F4704390
:1024300043EA023224F0A00343EA011182610162FF
:1024400010BD10B5406A0021C185C184FFF738FC7A
:1024500010BD0168CA6822F49072CA6001684A69B6
:1024600022F001024A61016B012904D10168CA68A6
:1024700022F01002CA60202180F83E100021016382
:10248000704708B590F83E10222901D0022008BDFF
:1024900082684FF480539A4201D1016921B1816A67
:1024A0009A421BD04AB10AE00268816A5268C2F3BC
:1024B00008020A80816A891C08E0026972B1026818
:1024C000526802F07F020A70816A491C8162C18DE4
:1024D000491E0904090CC18503D019E0026852683D
:1024E000F1E70168CA6822F02002CA600168CA6880
:1024F00022F48072CA6001684A6922F001024A61CE
:10250000202180F83E10016B012903D0FFF7BAFDAE
:10251000002008BD002101630168CA6822F0100292
:10252000CA6001680A68D20602D50A684968009143
:10253000818DFFF7C4FBEBE770B5044600680169C5
:10254000E26821F44051114301612169A068084308
:10255000616908432168CA6841F20C639A430243E7
:10256000CA6020684169A26921F440711143416148
:102570001E492068884202D1FEF7D6FF01E0FEF72F
:10258000C3FF00EBC00101EB001260686421800012
:10259000B2FBF0F3B3FBF1F36FF018067343B2FB39
:1025A000F0F5B2FBF0F605EB8305322303EB0515DE
:1025B000B5FBF1F5B6FBF1F605F0F00505EB0615F8
:1025C000B2FBF0F6B2FBF0F0B0FBF1F06FF01802E6
:1025D000504306EB800003EB0010B0FBF1F02168E4
:1025E00000F00F002844886070BD000000380140F2
:1025F0002DE9F041984617460E460446069D1DE01B
:10260000681C1BD02DB1FEF7D5FDA0EB0800A84239
:1026100014D92068C16821F4D071C1602068416973
:1026200021F001014161202084F83D0084F83E0042
:10263000002084F83C000320BDE8F0812068006899
:1026400036EA000004D00020B842D9D00020F3E7D9
:102650000120F9E70148FFF735BB0000D800002052
:10266000FEE700000FB4054B10B503A9044A029819
:1026700000F0EAF810BC5DF814FB0000752F0008AC
:10268000180000200907090E002804DB00F1E020F3
:1026900080F80014704700F00F0000F1E02080F88F
:1026A000141D704702E008C8121F08C1002AFAD1A1
:1026B00070477047002001E001C1121F002AFBD1C2
:1026C000704700002DE9FF5F82B00021DDE9043092
:1026D000020DDDF840B0034318D044F61050A2F2CA
:1026E000FF3242431514119801281FD0A5EB0B00AF
:1026F000401C5FEA000A4FF000064E4FDFF83891A9
:10270000B046504615D5CAF1000413E011980124D3
:102710004AA3012801D16FEA0B010298119AC0E97E
:102720000031C0E9024206B0BDE8F09FCBF10000E5
:10273000DFE704460021404A491842EB0450CDE946
:10274000001012E0E00707D032463B4640464946BB
:10275000FDF72BFE8046894632463B461046194619
:10276000FDF723FE06460F466410002CEAD1DDE992
:102770000401DDE90023BAF1000F06DAFDF715FECA
:1027800042464B46FDF711FE05E0FDF780FE42464E
:102790004B46FDF77CFE04460E460022284BFDF713
:1027A000FDFE03D84FF0FF30014607E00022254B25
:1027B00020463146FDF752FDFDF7D8FE102409E012
:1027C000002C0ADB0A220023FDF7AEFC039B30320B
:1027D0001A55641E50EA0102F2D1641C039AC4F136
:1027E00011031444119A012A03D0012208430DD188
:1027F0000AE0084304D000204FF0110B119072E75B
:10280000A3EB0B056D1E0DE05B4504DD4FF00002F0
:1028100005F1010504E003DA4FF00002A5F101051E
:10282000002AECD002981199C0E90231C0E90045B4
:1028300079E70000000014400000F03F3000000085
:102840000000F0430000E03F2DE9FF4F95B09A46AD
:10285000884606460025EEE1252877D10024274644
:10286000F94A0121039400E0044316F8013F203B9C
:1028700001FA03F01042F7D130782A2811D06FF016
:102880002F033078A0F13002092A16D8039A44F0B9
:10289000020402EB820203EB42021044761C039016
:1028A000EFE758F8042B0392002A03DA504244F46D
:1028B0000054039044F00204761C30782E2816D180
:1028C00016F8010F44F004042A280DD06FF02F02EF
:1028D0003078A0F13003092B09D807EB870302EB0E
:1028E0004303C718761CF3E758F8047B761C30784E
:1028F0006C280FD006DC4C2817D068280DD06A2829
:1029000014D104E0742810D07A280FD10DE044F4DB
:1029100000140AE044F4801401E044F44014727896
:10292000824202D104F58014761C761C3078662829
:102930000BD013DC582877D009DC002875D0452847
:10294000F6D04628F4D047281AD193E118E063283E
:1029500035D0642879D0652812D18BE1702873D0E6
:1029600008DC6728F1D069286FD06E280DD06F2859
:1029700006D1ACE073282CD0752874D0782853D0B9
:102980005246179990476D1C54E1C4F30250022837
:1029900009D003280DD0D8F8001004280DD00D6000
:1029A00008F1040846E1D8F80010EA17C1E900521E
:1029B000F6E7D8F800100D80F2E70D70F0E718F890
:1029C000041B8DF8001000208DF80100EB4601205B
:1029D00003E058F804BB4FF0FF3061074FF00001EF
:1029E00002D40DE009F101018946B9420FDA8145AF
:1029F000F8DB1BF809100029F4D108E009F1010106
:102A000089468142FADB1BF809100029F6D10398A8
:102A10005346A0EB090721463846179A00F080FA82
:102A2000284400EB090507E044E008E10DE01BF84D
:102A3000010B524617999047B9F10109F7D2534655
:102A400021463846179AF2E039E00A21C4F30252CF
:102A50004FF0000B0091022A06D058F8040BC11762
:102A6000032A09D00AE023E008F1070020F007025A
:102A7000F2E80201904605E000B2C117042A01D134
:102A800040B2C117002906DA0A460021404261EB34
:102A900002012D2202E0220504D52B228DF804200C
:102AA000012203E0E20701D02022F7E7914657E038
:102AB0000A2100E010214FF0000B00910BE01021E3
:102AC0004FF0000B44F004040827009103E00820B5
:102AD0004FF0000B0090C4F30252022A05D058F8C0
:102AE000040B0021032A08D008E008F1070020F0B9
:102AF0000702F2E80201904603E080B2042A00D106
:102B0000C0B24FF0000922072AD53278702A07D0C8
:102B1000DDF800C08CF0100C5CEA0B0C05D00EE068
:102B200040228DF80420012208E050EA010306D07B
:102B300030238DF804308DF8052002229146009B49
:102B400083F0080353EA0B030AD150EA010201D1D2
:102B5000620705D530228DF804204FF001097F1E51
:102B60003278582A04D039A20C920CAA02920BE0B7
:102B70003BA2F9E75B46009AFDF7D6FA0C9B9B5CFB
:102B8000029A521E0292137050EA0102F2D1029888
:102B900004A9081A00F1200B600702D524F4803440
:102BA00000E001275F4502DDA7EB0B0000E00020FD
:102BB00000EB0B01009003984944401A0390E00396
:102BC00006D453462146179A039800F0A9F9054404
:102BD000002706E001A85246C05D179990476D1C7A
:102BE0007F1C4F45F6DBE0030CD553462146179A70
:102BF000039800F095F9054404E0302052461799F7
:102C000090476D1C0099481E00900029F5DC08E0F3
:102C10000298029952460078491C029117999047F0
:102C20006D1CBBF10001ABF1010BF1DC5BE100F0CD
:102C300065F90544761C307800287FF40DAE19B094
:102C40002846BDE8F08F00000928010030313233FA
:102C500034353637383961626364656600000000D8
:102C600030313233343536373839414243444546C2
:102C700000000000600700D4062708F1070020F0DC
:102C80000700F0E80223804603F0004C5FEA0C00E6
:102C900001D097A009E0200501D596A005E0E00746
:102CA00001D095A001E0AFF24C001390307823F0F2
:102CB000004365280CD006DC452809D046281DD0E5
:102CC00047287FD13BE0662818D067287AD136E0C4
:102CD0000021112F01DB112000E0781CCDE900015B
:102CE00004A90CA8FFF7EEFCDDE90D010C9A4FF0EA
:102CF000000B07F10109109200914EE04FF00040E7
:102D00000097CDE9011004A90CA8FFF7DBFCDDE971
:102D10000D020C9B0F994FF0000B914610930092FF
:102D200011B9791C00EB0109B7EB090003D4C0F11C
:102D3000FF3B07F10109A9EB0700019042E0012FD9
:102D400000DA01270021112F01DD112000E03846B3
:102D5000CDE9000104A90CA8FFF7B4FCDDE90D01E1
:102D60000C9A00914FF0000BB946109221070FD436
:102D7000009A4A4503DA914601E0A9F10109B9F147
:102D8000010F05DD109AA9F10101515C3029F4D041
:102D9000B84202DA10F1040F03DA0121CDE9011083
:102DA00010E0002803DC8344A9EB000102E0411C91
:102DB000494500DD8946A0EB0B00401C01904FF017
:102DC00000400290200705D40198484502DB4FF0EF
:102DD000FF30019000208DF84B0002980DF14B0759
:102DE000B0F1004F25D002200C902B200D900298BE
:102DF00000280CDA404202902D200D9007E00A21B5
:102E00000298FDF706FA3031029007F8011D0C997F
:102E1000481E0C900029F2DC02980028EFD1791EA0
:102E20000D980870307800F0200040F0450007F859
:102E3000020D11A8C01BC01D02901398007800B1AC
:102E4000012000EB0901019801EBE07102980144B7
:102E50000398401A401E0390E00306D453462146CF
:102E6000179A039800F05CF805441398007818B19D
:102E70005246179990476D1CE00323D553462146CF
:102E8000179A039800F04CF805441BE0BBF1000FC3
:102E900007DB0098584504DD1098179910F80B00CF
:102EA00001E0179930205246904701980BF1010B31
:102EB000401E05F10105019004D12E2052461799BC
:102EC00090476D1CB9F10001A9F10109DEDC05E0B4
:102ED00017F8010B5246179990476D1C0299481E2E
:102EE00002900029F4DC53462146179A03989EE687
:102EF0002D0000002B000000200000002DE9F04113
:102F0000044600251E461746880404D405E03946C9
:102F10002020B0476D1C641EF9D52846BDE8F0811D
:102F20002DE9F041044600251E469046C80301D510
:102F3000302700E02027880404D505E041463846C4
:102F4000B0476D1C641EF9D52846BDE8F08100002D
:102F5000074808B500680168C9438906FBD44FF6E5
:102F6000FF73012269460248FFF72CF8009808BD5C
:102F7000D800002013B54FF6FF73012269460248BE
:102F8000FFF782F800981CBDD800002070B50446F9
:102F900005460948FFF7DCFF411C04D00A2806D08B
:102FA00004F8010BF5E7AC4201D1002070BD002010
:102FB0002070284670BD00001400002008B5FEF700
:102FC00007F9FFF79BF9FFF703F9FFF7EBF8FFF7B6
:102FD000B7F8FFF73DF9FFF76FF900F05DF84FF430
:102FE000FA7430B12046FDF7D9FF2046FDF7D6FF31
:102FF000F8E72046FDF7D2FF2046FDF7CFFF00F0AF
:1030000071F8204D074600262888012801D00328A2
:10301000FAD13446022269461B480096FDF78EFD20
:103020001A48FEF7E9FC6A88BDF80010BDF80200F6
:1030300009E0A3B2994201D961F30F04230C98422D
:1030400001D960F31F44002AF3D11048FEF7FCFCBD
:103050000D48FDF7F9FD07F10A000006FDF738FB02
:103060000446002213460AA0FFF7FCFA2046FDF7AB
:10307000BDF802460B4606A0FFF7F4FA2E80FA20B0
:103080006880C1E7000000201C00002090000020A4
:103090002530332E316600000EB50DA0FFF7E2FAA1
:1030A0006846FFF773FF01220BA16846FDF78FF812
:1030B00000280BD101220AA10DF10200FDF787F8CB
:1030C000002803D19DF801003038C0B20EBD0000C9
:1030D00073746573746500007378650A00000000FE
:1030E000650A00002DE9F0470026B2B034463546A7
:1030F000642269462248FDF721FD2248FEF77CFC48
:103100000120FDF74BFFB046EA46DFF87C9019E05E
:10311000002707EBC7020020514602EB071200BF51
:1031200000EB420331F813309E19641C45F1000591
:10313000401C3228F4DB0120FDF730FF7F1CFFB27A
:10314000012FE6D9B9F802000028E1D108F1010009
:1031500000F0FF08B8F1050FF4D30A48FEF774FC3D
:103160000748FDF771FDFA21A9F80210B0B2224616
:103170002B460021FCF7D8FF32B080B2BDE8F087C3
:103180001C00002090000020000000200000000033
:103190000000000001020304060708090000000007
:1031A00001020304C4310008000000201C000000DC
:1031B000A4260008E03100081C00002004050000DF
:1031C000B4260008000050C30100000010000000F9
:1031D000000000000024F4000000000000000000D7
:04000005080000ED02
:00000001FF
